:020000040800F2
:1000000000000C2099990008891A00088B1A000832
:100010008D1A00088F1A0008911A0008E999000843
:10002000000000000000000000000000931A00081B
:10003000951A000800000000971A0008991A000895
:10004000E9990008E9990008E9990008E999000888
:10005000E9990008E9990008E9990008E999000878
:10006000E9990008E9990008E9990008A11A00082F
:10007000AF1A0008E9990008E9990008E999000811
:10008000E9990008E9990008E9990008E999000848
:10009000E9990008E9990008E9990008E999000838
:1000A000E9990008E9990008E9990008E999000828
:1000B00000000000BD1A0008E9990008E99900084D
:1000C000E9990008E9990008E9990008E999000808
:1000D000E9990008E9990008E9990008E9990008F8
:1000E000E9990008E9990008E9990008E9990008E8
:1000F000E9990008E9990008E9990008E9990008D8
:10010000E9990008E9990008E9990008E9990008C7
:10011000E9990008E9990008E9990008E9990008B7
:10012000E9990008E9990008E9990008E9990008A7
:10013000E9990008E9990008E9990008E999000897
:10014000E9990008E9990008E9990008E999000887
:10015000E9990008E9990008E9990008E999000877
:10016000E9990008E9990008E9990008E999000867
:10017000E9990008E9990008E9990008E999000857
:10018000E9990008E9990008E9990008E999000847
:10019000E9990008E9990008E9990008E999000837
:1001A000E9990008E9990008E9990008E999000827
:1001B000E999000800000000E9990008E9990008A1
:1001C000E999000800000000E9990008E999000891
:1001D000E9990008E9990008E9990008E9990008F7
:1001E000E9990008E9990008E9990008E9990008E7
:1001F0000000000000000000E9990008E9990008EB
:10020000E9990008E9990008E9990008E9990008C6
:10021000E9990008E9990008E9990008CD1A000851
:10022000E9990008E9990008E9990008E9990008A6
:08023000E9990008E9990008B2
:10023800844641EA000313F0030349D1403A23D32B
:100248000B6803604B6843608B688360CB68C3604E
:100258000B6903614B6943618B698361CB69C36136
:100268000B6A03624B6A43628B6A8362CB6AC3621E
:100278000B6B03634B6B43638B6B8363CB6BC36306
:1002880040304031403ADBD230320BD30B68036048
:100298004B6843608B688360CB68C3601030103153
:1002A800103AF3D20C3205D351F8043B40F8043B22
:1002B800043AF9D2043208D0D2071CBF11F8013B26
:1002C80000F8013B01D30B8803806046704700BFEC
:1002D800082A13D38B07B1D010F00303AED0C3F1B3
:1002E8000403D21ADB071CBF11F8013B00F8013BDD
:1002F800A4D331F8023B20F8023B9FE7043AD9D354
:10030800013A11F8013B00F8013BF9D20B78037070
:100318004B7843708B7883706046704781F000415A
:1003280002E000BF83F0004330B54FEA41044FEAD2
:10033800430594EA050F08BF90EA020F1FBF54EA6D
:10034800000C55EA020C7FEA645C7FEA655C00F009
:10035800E2804FEA5454D4EB5555B8BF6D420CDDDA
:100368002C4480EA020281EA030382EA000083EA5D
:10037800010180EA020281EA0303362D88BF30BDFD
:1003880011F0004F4FEA01314FF4801C4CEA113153
:1003980002D0404261EB410113F0004F4FEA0333B2
:1003A8004CEA133302D0524263EB430394EA050F3D
:1003B80000F0A780A4F10104D5F1200E0DDB02FAAC
:1003C8000EFC22FA05F2801841F1000103FA0EF240
:1003D800801843FA05F359410EE0A5F120050EF106
:1003E800200E012A03FA0EFC28BF4CF0020C43FA37
:1003F80005F3C01851EBE37101F0004507D54FF044
:10040800000EDCF1000C7EEB00006EEB0101B1F593
:10041800801F1BD3B1F5001F0CD349085FEA3000D9
:100428004FEA3C0C04F101044FEA445212F5800FE4
:1004380080F09A80BCF1004F08BF5FEA500C50F181
:10044800000041EB045141EA050130BD5FEA4C0C64
:10045800404141EB0101013C28BFB1F5801FE9D2C1
:1004680091F0000F04BF01460020B1FA81F308BFE4
:100478002033A3F10B03B3F120020CDA0C3208DDB0
:1004880002F1140CC2F10C0201FA0CF021FA02F18B
:100498000CE002F11402D8BFC2F1200C01FA02F1FB
:1004A80020FA0CFCDCBF41EA0C019040E41AA2BF20
:1004B80001EB0451294330BD6FEA04041F3C1CDAE8
:1004C8000C340EDC04F11404C4F1200220FA04F008
:1004D80001FA02F340EA030021FA04F345EA0301B2
:1004E80030BDC4F10C04C4F1200220FA02F001FA74
:1004F80004F340EA0300294630BD21FA04F02946F6
:1005080030BD94F0000F83F4801306BF81F480118E
:100518000134013D4EE77FEA645C18BF7FEA655C01
:1005280029D094EA050F08BF90EA020F05D054EAD3
:10053800000C04BF1946104630BD91EA030F1EBFD8
:100548000021002030BD5FEA545C05D140004941DC
:1005580028BF41F0004130BD14F580043CBF01F5CF
:10056800801130BD01F0004545F0FE4141F47001B5
:100578004FF0000030BD7FEA645C1ABF1946104690
:100588007FEA655C1CBF0B46024650EA013406BF91
:1005980052EA033591EA030F41F4002130BD00BF50
:1005A80090F0000F04BF0021704730B54FF480640D
:1005B80004F132044FF000054FF0000150E700BF8E
:1005C80090F0000F04BF0021704730B54FF48064ED
:1005D80004F1320410F0004548BF40424FF00001DA
:1005E8003EE700BF42004FEAE2014FEA31014FEA1D
:1005F80002701FBF12F07F4393F07F4F81F060516C
:10060800704732F07F4208BF704793F07F4F04BFB6
:1006180041F40021704730B54FF4607401F0004593
:1006280021F000411CE700BF50EA010208BF7047F3
:1006380030B54FF000050AE050EA010208BF7047E4
:1006480030B511F0004502D5404261EB41014FF44D
:10065800806404F132045FEA915C3FF4D8AE4FF055
:1006680003025FEADC0C18BF03325FEADC0C18BF38
:10067800033202EBDC02C2F1200300FA03FC20FA89
:1006880002F001FA03FE40EA0E0021FA02F11444D6
:10069800BDE600BF70B54FF0FF0C4CF4E06C1CEAEF
:1006A80011541DBF1CEA135594EA0C0F95EA0C0F60
:1006B80000F0DEF82C4481EA030621EA4C5123EAD3
:1006C8004C5350EA013518BF52EA033541F4801102
:1006D80043F4801338D0A0FB02CE4FF00005E1FBB5
:1006E80002E506F00042E0FB03E54FF00006E1FBFF
:1006F80003569CF0000F18BF4EF0010EA4F1FF0442
:10070800B6F5007F64F5407404D25FEA4E0E6D4181
:1007180046EB060642EAC62141EA55514FEAC52092
:1007280040EA5E504FEACE2EB4F1FD0C88BFBCF50E
:10073800E06F1ED8BEF1004F08BF5FEA500E50F1BF
:10074800000041EB045170BD06F0004646EA010185
:1007580040EA020081EA0301B4EB5C04C2BFD4EBB7
:100768000C0541EA045170BD41F480114FF0000EB0
:10077800013C00F3AB8014F1360FDEBF002001F01E
:10078800004170BDC4F10004203C35DA0C341BDC98
:1007980004F11404C4F1200500FA05F320FA04F06A
:1007A80001FA05F240EA020001F0004221F000419E
:1007B80010EBD37021FA04F642EB06015EEA430E11
:1007C80008BF20EAD37070BDC4F10C04C4F1200541
:1007D80000FA04F320FA05F001FA04F240EA0200F4
:1007E80001F0004110EBD37041F100015EEA430EC5
:1007F80008BF20EAD37070BDC4F1200500FA05F2E5
:100808004EEA020E20FA04F301FA05F243EA020363
:1008180021FA04F001F0004121FA04F220EA020072
:1008280000EBD3705EEA430E08BF20EAD37070BDB8
:1008380094F0000F0FD101F00046400041EB010198
:1008480011F4801F08BF013CF7D041EA060195F07A
:10085800000F18BF704703F00046520043EB030334
:1008680013F4801F08BF013DF7D043EA0603704721
:1008780094EA0C0F0CEA135518BF95EA0C0F0CD02C
:1008880050EA410618BF52EA4306D1D181EA030172
:1008980001F000414FF0000070BD50EA410606BF6C
:1008A8001046194652EA430619D094EA0C0F02D1B1
:1008B80050EA013613D195EA0C0F05D152EA0336F6
:1008C8001CBF104619460AD181EA030101F0004114
:1008D80041F0FE4141F470014FF0000070BD41F05D
:1008E800FE4141F4780170BD70B54FF0FF0C4CF437
:1008F800E06C1CEA11541DBF1CEA135594EA0C0F56
:1009080095EA0C0F00F0A7F8A4EB050481EA030EA2
:1009180052EA03354FEA013100F088804FEA033389
:100928004FF0805545EA131343EA12634FEA022257
:1009380045EA111545EA10654FEA00260EF0004118
:100948009D4208BF964244F1FD0404F5407402D26A
:100958005B084FEA3202B61A65EB03055B084FEAFB
:1009680032024FF480104FF4002CB6EB020E75EBF8
:10097800030E22BFB61A754640EA0C005B084FEA20
:100988003202B6EB020E75EB030E22BFB61A75469D
:1009980040EA5C005B084FEA3202B6EB020E75EBE8
:1009A800030E22BFB61A754640EA9C005B084FEA60
:1009B8003202B6EB020E75EB030E22BFB61A75466D
:1009C80040EADC0055EA060E18D04FEA051545EA5C
:1009D80016754FEA06164FEAC30343EA52734FEA05
:1009E800C2025FEA1C1CC0D111F4801F0BD141EA7E
:1009F80000014FF000004FF0004CB6E711F4801FE3
:100A080004BF01430020B4F1FD0C88BFBCF5E06FC2
:100A18003FF6AFAEB5EB030C04BFB6EB020C5FEAD2
:100A2800500C50F1000041EB045170BD0EF0004E27
:100A38004EEA113114EB5C04C2BFD4EB0C0541EA59
:100A4800045170BD41F480114FF0000E013C90E656
:100A580045EA060E8DE60CEA135594EA0C0F08BF1A
:100A680095EA0C0F3FF43BAF94EA0C0F0AD150EA19
:100A780001347FF434AF95EA0C0F7FF425AF1046AC
:100A880019462CE795EA0C0F06D152EA03353FF4D4
:100A9800FDAE1046194622E750EA410618BF52EA51
:100AA80043067FF4C5AE50EA41047FF40DAF52EA25
:100AB80043057FF4EBAE12E74FF0FF3C06E000BFC2
:100AC8004FF0010C02E000BF4FF0010C4DF804CDCF
:100AD8004FEA410C7FEA6C5C4FEA430C18BF7FEA8F
:100AE8006C5C1BD001B050EA410C0CBF52EA430CBD
:100AF80091EA030F02BF90EA020F0020704710F13D
:100B0800000F91EA030F58BF994208BF90422CBFCB
:100B1800D8176FEAE37040F0010070474FEA410CC4
:100B28007FEA6C5C02D150EA013C07D14FEA430CE2
:100B38007FEA6C5CD6D152EA033CD3D05DF8040B53
:100B4800704700BF8446104662468C461946634685
:100B580000E000BF01B5FFF7B7FF002848BF10F15C
:100B6800000F01BD4DF808EDFFF7F4FF0CBF0120A1
:100B780000205DF808FB00BF4DF808EDFFF7EAFF1D
:100B880034BF012000205DF808FB00BF4DF808EDD8
:100B9800FFF7E0FF94BF012000205DF808FB00BFCD
:100BA8004DF808EDFFF7CEFF94BF012000205DF857
:100BB80008FB00BF4DF808EDFFF7C4FF34BF012064
:100BC80000205DF808FB00BF4FEA410C7FEA6C5C2F
:100BD80002D150EA013C0AD14FEA430C7FEA6C5C2F
:100BE80002D152EA033C02D14FF0000070474FF0A7
:100BF800010070474FEA410212F5001215D211D5D3
:100C08006FF47873B3EB625212D94FEAC12343F001
:100C1800004343EA505311F0004F23FA02F018BF83
:100C2800404270474FF00000704750EA013005D14C
:100C380011F0004008BF6FF0004070474FF000000F
:100C4800704700BF53B94AB9002908BF00281CBF24
:100C58004FF0FF314FF0FF3000F00CB8ADF1080C49
:100C68006DE904CE10F010FFDDF804E0DDE90223A1
:100C780004B07047704700BF0348044B834202D05A
:100C8800034B03B118477047F8060020F806002008
:100C980000000000064B0749C91A891048BF0131F6
:100CA800491003D0044B0BB101481847704700BFE7
:100CB800F8060020F80600200000000010B5064CD9
:100CC800237843B9FFF7D8FF044B13B10448AFF3B7
:100CD80000800123237010BDF806002000000000EA
:100CE800901D010808B5054B1BB105490548AFF330
:100CF8000080BDE80840FFF7CDBF00BF000000003E
:100D0800FC060020901D010808B500F0FFFF042034
:100D180000F0EAFF08BD72B6FEE7000000B59FB01C
:100D28006022002106A809F063F8002300930193CC
:100D380002930393049305934FF4403005F08EFE1D
:100D480000283AD105F060FE1F4AD2F8F03023F0AF
:100D58001803C2F8F03034230693812308934FF424
:100D68008053119301230D9310220E9200210F91AD
:100D78000222149215934FF40050179003201690F6
:100D88000820189019921A921B930C231C931D91FA
:100D980006A803F01FF890B91F23009303210191BF
:100DA800002302930393049340230593684602F0BB
:100DB80077FE30B91FB05DF804FBFFF7ACFFFFF713
:100DC800AAFFFFF7A8FF00BF000C024608B5FFF70F
:100DD8009BFF02F09FF8FFF7A1FF00F01BF808F057
:100DE800CFFA00F0FDF800F023FB00F07BFC00F0E8
:100DF80085FA00F061FB00F025FD00F0BBFD08F06E
:100E0800F3FA08F0BBF808F05DFA0A2002F0BEF821
:100E1800F9E700002DE9F0478CB000240794089406
:100E280009940A940B94684BD3F88C2042F004027E
:100E3800C3F88C20D3F88C2002F004020192019AA6
:100E4800D3F88C2042F08002C3F88C20D3F88C2091
:100E580002F080020292029AD3F88C2042F001023A
:100E6800C3F88C20D3F88C2002F001020392039A75
:100E7800D3F88C2042F00202C3F88C20D3F88C20DF
:100E880002F002020492049AD3F88C2042F0100275
:100E9800C3F88C20D3F88C2002F010020592059A32
:100EA800D3F88C2042F00802C3F88C20D3F88C3099
:100EB80003F008030693069B444E224648F2380185
:100EC800304605F081FDDFF8109122464FF480513D
:100ED800484605F079FD3E4F01224FF440613846FF
:100EE80005F072FD01224FF48061304605F06CFD7B
:100EF800DFF8E8A022464FF48061504605F064FD13
:100F080022460121384605F05FFD48F23803079371
:100F18000125089509940A9407A9304605F0BEFBF7
:100F28004FF00308CDF81C802A4B0893099507A9B0
:100F3800484605F0B3FB4FF480530793089509948E
:100F48000A9407A9484605F0A9FB40F20143079314
:100F580008954FF00209CDF824900A9407A938465D
:100F680005F09CFB4FF40063079308950995CDF8AD
:100F7800288007A9384605F091FB4FF4806707974A
:100F880008950995CDF8288007A9304605F086FB15
:100F980007970895CDF824900A9407A9504605F0BC
:100FA8007DFB224621460B2000F01EFE0B2000F0A0
:100FB8002BFE224621460C2000F016FE0C2000F0E5
:100FC80023FE0CB0BDE8F087000C02460000024288
:100FD800000C0242000021100004024200080242F4
:100FE80008B50B480B4B0360002343608360C36064
:100FF800036143618361036243628362C362036383
:1010080000F0E4FE00B908BDFFF785FEFBE700BF6E
:10101800C807002000C002422DE9F043A7B00446EB
:101028000021219122912391249125916C2206A8D7
:1010380008F0DEFE22686C4B9A4202D027B0BDE869
:10104800F0836A4BD3F88C2042F48052C3F88C208A
:10105800D3F88C2002F480520192019AD3F88C20A4
:1010680042F00802C3F88C20D3F88C2002F0080262
:101078000292029AD3F88C2042F00402C3F88C2022
:10108800D3F88C2002F004020392039AD3F88C2040
:1010980042F00102C3F88C20D3F88C2002F0010240
:1010A8000492049AD3F88C2042F00202C3F88C20F0
:1010B800D3F88C3003F002030593059B4FF440737B
:1010C8002193022622960A27259721A9484805F048
:1010D800E5FA4FF418632193229600252395249569
:1010E8002597DFF8289121A9484605F0D7FA4FF44B
:1010F8000078CDF88480229623952495042325939F
:1011080021A9484605F0CAFACDF88480229623958D
:1011180024950523259321A9364805F0BFFA4FF4F5
:1011280070732193229623952495259721A93248F7
:1011380005F0B4FA212306935623079308950995D9
:101148000A954FF400230B930C964FF400330D933C
:1011580001230F93109311951295139517951495D4
:101168001595264906A801F043FD58BB234A0021DE
:10117800234801F048FD40BB214801F0D0FD38BBB1
:101188002048214B036000238363C36303644364E3
:101198008123836401F096FCE8B91949194801F0E4
:1011A800FFFDD8B91748A064C465102101F006FAFC
:1011B800B8B900221146772000F016FD772000F01C
:1011C80023FD3BE7FFF7A7FDD0E7FFF7A4FDD3E733
:1011D800FFF7A1FDD4E7FFF79EFDDEE7FFF79BFDD4
:1011E800E0E7FFF798FDE4E700C00242000C024682
:1011F800000C02420000024200040242A407002040
:101208008C0700201407002050000240000802420A
:101218000268144B9A4200D0704710B50446124A2F
:10122800D2F88C3023F48053C2F88C304FF44071DC
:101238000E4805F047FB4FF438610D4805F042FBB6
:101248004FF400710B4805F03DFB4FF470710A48EC
:1012580005F038FBA06C00F0ADFF772000F0D8FC5B
:1012680010BD00BF00C00242000C0246000C024242
:1012780000080242000002420004024238B5044657
:101288001C4D284600F0C8FE2846FFF7C1FF284637
:10129800FFF7C2FEB4B12846174B2B6000236B60E2
:1012A8002022AA60EB602B616B61AB612B626B62E1
:1012B800AB62EB622B6300F089FD00B938BDFFF724
:1012C8002AFDFBE70B480C4B036000234360836057
:1012D8008022C26003614361836103624362836267
:1012E800C362036300F072FD0028E7D0FFF713FD27
:1012F800E4E700BFC807002000C0024208B515484F
:10130800154B0360A3F15653A3F57A23A3F64423A0
:101318004360002383600122C260036143618361EB
:10132800C361036202F017F850B90021094802F0BE
:101338003DFA40B90021074802F066FA30B908BD05
:10134800FFF7E9FCF1E7FFF7E6FCF3E7FFF7E3FC5B
:10135800F5E700BF180800200028004610B5B8B00F
:101368000446002133913491359136913791C0224A
:1013780002A808F03DFD22681B4B9A4201D038B004
:1013880010BD4FF480720023CDE9022302A803F0B8
:1013980081FB30BB154CD4F88C3043F00403C4F8FF
:1013A8008C30D4F88C3003F004030093009B0323A3
:1013B80033931222349201223592369304233793C1
:1013C80033A90B4805F06AF9D4F8A83043F0800334
:1013D800C4F8A830D4F8A83003F080030193019B27
:1013E800CDE7FFF798FCD5E700280046000C024639
:1013F8000008024202680B4B9A4200D0704710B5B1
:10140800094AD2F8A83023F08003C2F8A830074C64
:101418000121204605F056FA0221204605F052FA2D
:1014280010BD00BF00280046000C0246000802421A
:1014380000B585B000230193029303931C481D4A0D
:1014480002604FF4800242604FF40032826007224B
:10145800C260036143614FF0806181614FF0805148
:10146800C161036243628362C2624FF08042426399
:101478008363C3638364C364036543658365C3652A
:10148800036605F06DFB68B9002301934FF08052A5
:101498000292039301A9064805F018FC28B905B083
:1014A8005DF804FBFFF737FCEEE7FFF734FCF6E7DF
:1014B800FC0800200030014000B585B000230193EE
:1014C800029303931A481B4A02604FF48002426059
:1014D80083600721C160036143614FF080628261CC
:1014E8004FF08042C261036243628362C162426319
:1014F8008363C3638364C364036543658365C365AA
:10150800036605F02DFB68B9002301934FF0805264
:101518000292039301A9064805F0D8FB28B905B043
:101528005DF804FBFFF7F7FBEEE7FFF7F4FBF6E7E0
:101538006C0800200038004010B5BAB004460021FD
:1015480035913691379138913991C02204A808F025
:101558004FFC23683A4A934204D03A4A934237D020
:101568003AB010BD4FF400020023CDE904234FF434
:101578008013309304A803F08DFA30BB324BD3F8B4
:10158800A42042F48052C3F8A420D3F8A42002F483
:1015980080520092009AD3F88C2042F00102C3F8DE
:1015A8008C20D3F88C3003F001030193019BC223F4
:1015B80035930223369300233793389305233993C1
:1015C80035A9224805F06AF8CAE7FFF7A4FBD5E772
:1015D8004FF080720023CDE904234FF48033319318
:1015E80004A803F057FA38BB174BD3F89C2042F4F1
:1015F8008042C3F89C20D3F89C2002F480420292D7
:10160800029AD3F88C2042F00202C3F88C20D3F857
:101618008C3003F002030393039B4FF4604335932C
:10162800022336930023379338930523399335A93A
:10163800074805F033F893E7FFF76DFBD4E700BFE1
:101648000030014000380040000C02460000024211
:101658000004024202680A4B9A4200D0704782B0E6
:10166800084BD3F8A42042F40062C3F8A420D3F8AE
:10167800A43003F400630193019B02B0704700BFDC
:10168800002C0140000C024600B587B000230193EE
:10169800029303930493059302680F4B9A4202D076
:1016A80007B05DF804FB0D4BD3F88C2042F0100214
:1016B800C3F88C20D3F88C3003F010030093009B00
:1016C8004FF400730193022302930123059301A9A8
:1016D800034804F0E3FFE3E7002C0140000C024656
:1016E8000010024210B59CB00024189419941A9462
:1016F8001B941594169417940E940F9410941194A7
:101708001294139414943422214601A808F070FB13
:101718003248334B036040F2CF73436084606323E5
:10172800C36004614461846105F03EFE002842D133
:101738004FF48053189318A9284805F0A7FF0028EC
:101748003CD1264805F060FE00283AD100231593C5
:101758001693179315A9214806F038F8002833D1B5
:1017680060230E9350230F9300221092119212922D
:10177800139214920EA9194805F0DEFE38BB002317
:10178800019302930393049305934FF40052069236
:101798000793089309934FF000720A920B930C93E6
:1017A8000D9301A90D4806F085F898B90B48FFF785
:1017B8006BFF1CB010BDFFF7AEFAB9E7FFF7ABFA45
:1017C800BFE7FFF7A8FAC1E7FFF7A5FAC8E7FFF7F1
:1017D800A2FAD4E7FFF79FFAE8E700BF8C090020D8
:1017E800002C01400268064B9A4200D07047054A17
:1017F800D2F8A43023F40063C2F8A430F6E700BF9F
:10180800002C0140000C024600B583B001904FF651
:10181800FF73012201A9034806F092FA019803B068
:101828005DF804FBD809002070B50C461646002563
:1018380004E014F8010BFFF7E7FF0135B542F8DBC8
:10184800304670BD08B51748174B03604FF4165360
:10185800436000238360C36003610C22426183619B
:10186800C36103624362836206F042FB70B90021E0
:101878000C4806F0B6FB60B900210A4806F0D6FB12
:1018880050B9084806F08EFB48B908BDFFF743FA7F
:10189800EDE7FFF740FAEFE7FFF73DFAF1E7FFF76B
:1018A8003AFAF2E7D80900200048004010B5B8B06D
:1018B8000446002133913491359136913791C022F5
:1018C80002A808F095FA22681B4B9A4201D038B05A
:1018D80010BD04220023CDE9022302A803F0DAF8A0
:1018E80030BB164BD3F89C2042F48022C3F89C20CE
:1018F800D3F89C2002F480220092009AD3F88C201E
:1019080042F00402C3F88C20D3F88C3003F00403AF
:101918000193019B3023339302233493002335939F
:1019280036930723379333A9054804F0B7FECEE76B
:10193800FFF7F1F9D5E700BF00480040000C024668
:101948000008024208B50268074B9A4200D008BD59
:10195800064AD2F89C3023F48023C2F89C30302108
:10196800034804F0AFFFF2E700480040000C0246CD
:101978000008024208B50B480B4B036006230371AD
:101988000223C371437200238372C37203734373C8
:10199800C3738373837106F06FFB00B908BDFFF74B
:1019A800BAF9FBE76C0A00200000044210B5BAB08F
:1019B8000446002135913691379138913991C022EA
:1019C80004A808F015FA22682A4B9A4201D03AB0C6
:1019D80010BD4FF480120023CDE9042304A803F0BE
:1019E80059F8002840D1244CD4F88C3043F0010336
:1019F800C4F88C30D4F88C3003F001030193019BB8
:101A08004FF4C0533593022336930023379338930A
:101A18000A23399335A9194804F040FED4F88C30CC
:101A280043F48043C4F88C30D4F88C3003F48043FA
:101A38000293029BD4F8943013F0040F17D1D4F812
:101A4800943043F00403C4F89430D4F8943003F08D
:101A580004030393039B05F073F8D4F8943023F040
:101A68000403C4F89430B2E7FFF755F9BBE705F073
:101A780067F8ACE700000442000C0246000002428E
:101A8800FEE7FEE7FEE7FEE7FEE7704770477047B0
:101A980008B501F069FA08BD08B5012004F09CFFFB
:101AA80007F08AFC08BD08B5022004F095FF07F08E
:101AB8008FFC08BD08B5024800F0A7FC08BD00BFB0
:101AC8001407002008B5044800F0FCFA034B1B6813
:101AD80003B1984708BD00BFC8070020540F002075
:101AE80008B5024B1B6803B1984708BD500F00208A
:101AF80000B583B0084BD3F8942042F00402C3F831
:101B08009420D3F8943003F004030193019B05F06B
:101B180017F803B05DF804FB000C0246002807DB49
:101B280000F01F02400901239340024A42F8203086
:101B3800704700BF00E100E000280CDB00F01F0246
:101B48004009012393402030034A42F82030BFF374
:101B58004F8FBFF36F8F704700E100E0002808DB6C
:101B68000901C9B200F1604000F5614080F8001336
:101B7800704700F00F000901C9B2014B19547047B2
:101B880014ED00E000B500F00700C0F1070CBCF14F
:101B9800040F28BF4FF0040C031D062B0FD9C31EDA
:101BA8004FF0FF3E0EFA0CF021EA000199400EFAC0
:101BB80003FE22EA0E0241EA02005DF804FB00235C
:101BC800EEE70000074AD36823F4E0631B041B0C0C
:101BD800000200F4E060034343F0BF6343F40033C2
:101BE800D360704700ED00E010B50446054BD86897
:101BF800C0F30220FFF7C6FF01462046FFF7AEFFFD
:101C080010BD00BF00ED00E008B5FFF787FF08BD75
:101C180008B5FFF791FF08BD0138B0F1807F09D200
:101C28004FF0E0235861002098611A6942F00302DE
:101C38001A61704701207047042838D8DFE800F09F
:101C48000A18283703004FF0E022136943F0040311
:101C5800136170474FF0E022136923F00403136106
:101C6800134AD2F8E03023F44003C2F8E03070475A
:101C78004FF0E022136923F0040313610C4AD2F8F1
:101C8800E03023F4400343F48003C2F8E0307047A7
:101C98004FF0E022136923F004031361044AD2F8D9
:101CA800E03023F4400343F40003C2F8E030704707
:101CB800000C02464FF0E023186910F004000CD124
:101CC800084BD3F8E03003F44003B3F5800F06D097
:101CD800B3F5000F04D1022070470420704701209B
:101CE800704700BF000C0246BFF35F8F40F0010051
:101CF800054BC3F894005A6A42F480325A62BFF323
:101D08004F8FBFF36F8F704700ED00E0BFF35F8F19
:101D1800074B5A6A22F480325A62D3F8942022F090
:101D28000102C3F89420BFF34F8FBFF36F8F704742
:101D380000ED00E0C36DDA6B002A37D070B45C6C3C
:101D4800196C9E6BDD6B9A6C1068C26F22F00302EF
:101D58001204120C00686FF30F000243986B0128FD
:101D680009D9891B023105FB014111619A6B013ABE
:101D78009A6370BC7047996B01290ED0D96B2144C6
:101D880011611A68116811F0020F0BD1196C99636F
:101D9800D36843F00103D360EBE714619A6B013A0F
:101DA8009A63E6E7012183F83510F1E71968CA68F4
:101DB80042F00102CA601A68126812F0020F03D0DA
:101DC800012283F83520704770470000002848D06A
:101DD80010B5044690F83530002B32D0022384F831
:101DE8003530A3690BB100236362226811681E4B6A
:101DF8000B40136022681168636860690343E068F8
:101E0800034320690343A0680343A0690343206A8E
:101E18000343606A0343A06A0343E06A0343206BF9
:101E280003430B4313606368102B0DD02268D368FB
:101E380043F01E03D3600020E064012384F83530AA
:101E480010BDFFF7E9F8C9E7237F627F43EA022361
:101E5800A27F43EA0243E17F226843EA0163936178
:101E6800E4E70120704700BF07F0E0FF38B50446FB
:101E780090F83400012800F0C980012084F834006B
:101E8800022084F835002568286840F480402860DE
:101E98002568286820F00200286025682868014322
:101EA8002960A16C5A480866A16C5A488866A06CDB
:101EB8000021C166A1632164E16361649B00B3F5FD
:101EC800803F2FD2A06C016D11F0800F1BD0416FA5
:101ED80081B1096871B18B6023682833A16C496F9F
:101EE8000968CB60A36C5B6F1B681A61A06C00F07B
:101EF80018FE0CE04023E364012384F83530002306
:101F080084F8343079E02168283100F0D3F90028CA
:101F180073D12268136843F001031360002384F827
:101F2800343072E00121A163E363626405E0E36B8E
:101F38005B08E363A36B5B00A363E36BB3F5803FCC
:101F4800F5D2A36B013BA363A36B2364A36C196D48
:101F580011F0800F49D05B6F002B3DD01B68002B20
:101F68003AD0E16B996023682833A16C496F0968FE
:101F7800CB60A36C5B6F1B681A61A36C5B6F1B68FB
:101F8800196AC1F3022153F8211041B94023E364CF
:101F9800012384F83530002384F834302DE06FF3C2
:101FA8000F0321F003010904090C0B43E16B99604D
:101FB80021682831D960E16B11441961A06C00F0E7
:101FC800B0FD0028A5D04023E364012384F8353010
:101FD800002384F8343010E04023E364012384F8BC
:101FE8003530002384F8343007E04023E3640123CC
:101FF80084F83530002384F834304023E36401202A
:1020080084F83500002384F8343038BD0220FCE71A
:102018003D1D0008A720000838B51E4B1B681E4A46
:10202800A2FB03235B0A4FF47A7202FB03F390F8D6
:102038003420012A2BD00446012280F834200222C1
:1020480080F8352001680A6822F001020A60013B25
:1020580006D02268126812F0010FF8D1002504E0BA
:10206800E36C43F02003E36403252268136823F438
:1020780080431360A06C00F05AF9E36CE364012319
:1020880084F83530002384F83430284638BD0225DA
:10209800FBE700BF08000020D34D6210704708B569
:1020A800C06D836C9B6D022B06D0012380F8353000
:1020B800C36C43F04003C364FFF7F0FF08BD7047EB
:1020C8007047000038B5044603681D6915F0040F11
:1020D80020D115F0020F31D115F0100F44D115F0B1
:1020E800080F48D115F0010F13D023681A6812F0B1
:1020F800020F03D0DA6822F01E02DA602268D36881
:1021080023F00103D360236801225A612046FFF7B8
:10211800E7FC38BD04225A61C36C43F00203C36470
:1021280080F83520836C174ADA66806C00F055F920
:102138000028CED0A06CFFF7B2FFCAE723680222BE
:102148005A61E36C43F00103E364042384F83530F7
:10215800A36C0C4ADA66A06C00F03FF90028BBD0EB
:10216800A06CFFF79CFFB7E7236810225A6120464E
:10217800FFF7A5FFB3E7236808225A612046FFF757
:102188009FFFAFE7A720000830B40568AC6C4FEAA2
:10219800144C4FEA0C4C9BB24CEA0303AB64036843
:1021A8004FF4FE44DC600368D96403681A6530BCE8
:1021B8007047000070B5044600F0E2FE002C75D0B0
:1021C8000546236823F47F6626F00F065A6942F015
:1021D80006025A6123685A6912F0010F0BD000F009
:1021E800CFFE431B052BF5D91023A365032384F8E1
:1021F8005430012059E000221A6023685A6123688C
:102208001A6423685A6423689A642368DA64236822
:102218001A652368DA672368254A93421ED002F1BB
:10222800805293421AD002F170428032934215D004
:1022380002F18052934211D002F1704280329342EF
:102248000CD002F18052934208D002F170428032E1
:10225800934203D002F18052934203D100225A657F
:1022680023689A6572682368C3F30B03503BC3F372
:10227800C413012101FA03F322EA030373602368FC
:102288004FF4FE42DA60002323666366A366E366C2
:1022980023676367E36D0BB10023E36500202065C6
:1022A800A06584F8540084F84C0070BD0120FCE758
:1022B80050060240002836D010B5044690F84C006D
:1022C800012832D0012084F84C0094F85400C0B2A0
:1022D800012806D04023A365002384F84C30012050
:1022E80010BD022084F854000020A0652046FFF7A6
:1022F8004BFF2268536943F4BA435361636E23B1B9
:102308002268536943F400735361236F23B1226831
:10231800536943F4005353612268536943F001033E
:1023280053610020DCE7012070470220D8E738B568
:10233800044600F025FE002C4DD0054694F8543094
:10234800DBB2022B06D02023A365002384F84C308F
:10235800012038BD2268536943F004035361052303
:1023680084F8543023681A6912F4005F17D100F01A
:1023780007FE431B052BF5D9A36D43F01003A36596
:10238800032384F85430236D13F0800F02D0636F59
:1023980001221A73002384F84C300120D9E75A69C6
:1023A80042F002025A61042384F8543023684FF43F
:1023B800FE42DA60012384F85430236D13F0800F55
:1023C80005D0636F01221A73236800229A640020E3
:1023D80084F84C00BDE70120BBE7A0B190F8543069
:1023E800DBB2022B03D0202383650120704704232E
:1023F80080F854300268536943F4005343F00403EF
:102408005361002070470120704710B504460268E8
:1024180022F47F6020F00F00C2F30B03503BC3F39C
:10242800C413012101FA03F3C168194200F0C58001
:10243800136913F4806F0AD0536913F4806F06D0C0
:102448004FF48063D360A36D43F00103A365236851
:102458001A6912F4006F0AD05A6912F4006F06D094
:102468004FF40062DA60A36D43F00203A3652368AA
:102478001A6912F4805F0AD05A6912F4805F06D094
:102488004FF48052DA60A36D43F00403A365236818
:102498001A6912F4804F0AD05A6912F4804F06D094
:1024A8004FF48042DA60A36D43F00803A365236804
:1024B8001A6912F4007F0AD05A6912F4007F06D014
:1024C8004FF40072DA60636E0BB1204698472368B8
:1024D8001A6912F4005F12D05A6912F4005F0ED024
:1024E8004FF40052DA6094F85430DBB2042B1DD05C
:1024F800052384F85430236F0BB12046984723688E
:102508001A6912F4807F40D05A6912F4807F3CD057
:10251800226D12F0800F28D0DA6F5ABB9B6C4BBB30
:10252800012384F85430626F137323E022685369DF
:1025380023F4005353612268536943F00203536143
:10254800012384F85430236D13F0800F05D0636F96
:1025580001221A73236800229A64002384F84C30FD
:10256800E36E53B32046984727E09B6C13B90123C9
:1025780084F8543023684FF44072DA60002384F8FA
:102588004C30236E0BB120469847A36DABB122683F
:10259800536943F002035361012384F85430236DD7
:1025A80013F0800F02D0636F01221A73002384F89E
:1025B8004C30A36E0BB12046984710BDE8B10368B4
:1025C80023F47F6020F00F00C3F30B03503BC3F3E9
:1025D800C41301229A4011F0100F10D001F011011C
:1025E800112905D0436823EA02034360002070479D
:1025F8004368134343600020704701207047002060
:1026080070470000816BC36B19430368674A9342A4
:1026180000F08D8002F18052934200F0888002F130
:1026280070428032934200F0828002F180529342DD
:102638007DD002F170428032934278D002F180520C
:10264800934274D002F17042803293426FD002F10B
:10265800805293426BD002F170428032934266D02E
:1026680002F18052934262D002F17042803293426A
:102678005DD002F18052934259D002F1704280320B
:10268800934254D002F18052934250D002F17042EA
:10269800803293424BD002F18052934247D002F1EC
:1026A80070428032934242D002F1805293423ED02F
:1026B80002F170428032934239D002F18052934243
:1026C80035D002F170428032934230D002F180520C
:1026D80093422CD002F170428032934227D002F10B
:1026E8008052934223D002F17042803293421ED02E
:1026F80002F1805293421AD002F170428032934222
:1027080015D002F18052934211D002F1704280320A
:1027180093420CD002F18052934208D002F17042E9
:102728008032934203D002F18052934201D1026C6D
:1027380011435A6922F443020A435A61026800238A
:1027480013640268416C5164026893640268D3643C
:10275800026813650368164A93421ED002F180523C
:1027680093421AD002F170428032934215D002F19E
:102778008052934211D002F17042803293420CD0C1
:1027880002F18052934208D002F1704280329342A3
:1027980003D002F18052934203D100225A650368A4
:1027A8009A6503680022DA67704700BF500002404C
:1027B8005006024010B44369C2691343C26B134305
:1027C80002691343826913430B60026812F0200FF9
:1027D80016D0C26A846B2243846A04F1FF3C4FEA34
:1027E8000C5C0CF07C7C42EA0C02446A04F1FF3C6D
:1027F8004FEA0C1C0CF47C7C42EA0C0213430B607D
:10280800036B426822F4C0729205920D13434B6029
:10281800C268B2F5806F64D0B2F5007F69D0436CAE
:102828004BB1026C1343826C120402F47C12134302
:102838004A6813434B60B0F868308B60026812F046
:10284800020F20D0C26C02F1FF3C434A02EA0C425C
:1028580013438B60026D002A4FDB8B60436D002BA6
:102868004FDB8B6823F000538B60836D002B4DDBAF
:102878008B6823F080438B60C36D002B4BDB8B6828
:1028880023F000438B60036ECB60436E0B610368DB
:1028980013F0020F1AD0036D002B41DBC3F30C03B6
:1028A8004B61436D002B40DB4A692C4C04EA03431F
:1028B8001A434A61836D002B3FDB9BB28B61C36D6A
:1028C800002B3EDB8A6942EA03428A6103680B6295
:1028D80013F0020F3BD043F4E0630B625DF8044B46
:1028E8007047026812F0200F99D043F480634B6060
:1028F80095E743F400734B6091E743F080538B6096
:10290800ACE78B6843F000538B60AEE78B6843F00D
:1029180080438B60B0E78B6843F000438B60B2E77D
:102928005B42C3F30C034B61BBE75B424A690B4C48
:1029380004EA03431A434A61BCE75B429BB28B61DA
:10294800BDE75B428A6942EA03428A61BEE743F413
:10295800A0630B62C2E700BF0000FF070000FF1F73
:10296800844640EA0103134330B183EA0C03B3F50C
:10297800803F0AD20020704709B18C46F5E70AB1BA
:102988009446F2E74FF0000CEFE70120704768B17A
:1029980090F8203019B191F82010994210D18AB1DD
:1029A80092F820209A420FD10020704711B191F877
:1029B8002030F0E712B192F82030EBE70023E9E786
:1029C800022070470020704703207047036A13F005
:1029D800020F06D009B1064B0B6042B10723136002
:1029E800704709B1034B0B600AB1052313607047A8
:1029F800000001FE000001F830B5844615680C4659
:102A0800E1B14FF0000E7146734627E0BCF80200B2
:102A180001EB004050F825008E464FF6FC7101404E
:102A28000133DCF8080098422AD9002BEED1DCF8F3
:102A3800001021F003010904090CF1E74FF0000E22
:102A480071467346EDE7BCF8020001EB004050F810
:102A580025008E464FF6FC7101400133DCF8080072
:102A680098420DD94FF6FC702040884208D0002BC0
:102A7800E9D1DCF8001021F003010904090CECE7A6
:102A88002CB124F003042404240C8C4218D1936044
:102A9800BCF802304EEA03435360BCF8023041EA06
:102AA8000341D16051F8250058B120F0030000041B
:102AB800000CBCF8023040EA03401061002000E03E
:102AC800012030BD38B5044600F05AFA3CB305463B
:102AD8002268002384F84C30022384F85430536968
:102AE80043F00603536123685B6913F0010F0BD0B1
:102AF80000F046FA431B052BF5D91023A3650323E1
:102B080084F85430012009E02046FFF77BFDA36CD0
:102B180023650020A065012384F8543038BD0120C6
:102B2800FCE700285ED010B582B00446416F00294A
:102B38005AD090F85430DBB20268526902F48032FD
:102B4800012B03D0022B46D1002A44D094F85430EC
:102B5800DBB2012B07D02268536943F001035361AC
:102B6800002002B010BD94F84C30012B3ED0012358
:102B780084F84C30022384F854300B730023A36587
:102B8800626F13612268536943F4BA435361636EF9
:102B980023B12268536943F400735361236F23B14F
:102BA8002268536943F400535361636F002201A9FB
:102BB8001868FFF70BFF636F22685B881B041360BC
:102BC800636F1B6823F003031B041B0C2268019925
:102BD8000B43D367BFE74023A365002384F84C3039
:102BE8000120BEE7012070470120BAE70220B8E7BC
:102BF80028B108B529B1FFF7DDFD002008BD012087
:102C080070470120FAE7002800F08580F0B589B008
:102C18000D4614460646002A7FD04369012B0ED084
:102C280007683846FFF79CFE68B9224629463846A9
:102C3800FFF7ADFE60B104233361012006E00423F1
:102C48000361012002E005233361012009B0F0BDD2
:102C5800022333730023336106AA07A92046FFF72E
:102C6800B5FE3368DBB165B3069B019301AA29461B
:102C78003046FFF7C1FE002849D1B368039A9A424B
:102C880031D0069B55F8232044F8232024F0030470
:102C98002404240C079A144345F823401BE065B12B
:102CA800356024F003042404240C079B1C43069B72
:102CB80045F823400223B36010E034600123B36079
:102CC8000CE023F003031B041B0C079A1343069A1A
:102CD80044F822303460B3680133B36000203061B7
:102CE80001233373B2E7736843B123F003031B0472
:102CF8001B0C079A1343069A44F822304FF6FC73CC
:102D08002340079A1343069A45F82230E3E706233F
:102D1800336101209AE701207047012096E70028D7
:102D280039D030B589B00446006840B1636853B102
:102D3800984232D004232361012009B030BD022318
:102D480023610120F9E76369012B20D00223237353
:102D58000025256106AA07A9FFF738FE069B0193FF
:102D680001AA29462046FFF747FE236823F00303FC
:102D78001B041B0C079A1343049A069942F8213046
:102D8800236863602561012323732846D5E704235C
:102D980023610120D1E7012070470020CDE7000022
:102DA800844600285AD000295AD090F85430DAB214
:102DB80090F85430DBB2022B37D0052A35D00B7B84
:102DC800DBB2022B39D00368264A934223D002F1A2
:102DD800805293421FD002F17042803293421AD03F
:102DE80002F18052934216D002F17042803293422F
:102DF80011D002F1805293420DD002F1704280321C
:102E0800934208D002F18052934204D00B681B6AA7
:102E180013F0020F14D1DCF85030812B14D04B681A
:102E2800A3B104230B61012070474023CCF858302C
:102E380000238CF84C30012070470120086170474E
:102E480003230B61012070474B681BB1CCF8741049
:102E58000020704704230B61012070470120704750
:102E6800012070475006024038B5274B1A78002ACF
:102E780047D005464FF0E0231C6914F004040DD038
:102E8800224B1C684FF47A71B1FBF2F2B4FBF2F4F6
:102E98002046FEF7C1FE50B3012033E0FEF70AFFDB
:102EA80001280ED0022817D00028F1D1174B1C6832
:102EB800154A11784FF4FA52B2FBF1F2B4FBF2F46E
:102EC800E6E7114B1B784FF47A72B2FBF3F24FF43A
:102ED800FA43B3FBF2F4DBE70B4B1B784FF47A723F
:102EE800B2FBF3F24FF40043B3FBF2F4D0E7002255
:102EF80029464FF0FF30FEF777FE054B1D60002096
:102F080000E0012038BD00BF0000002008000020BC
:102F18000400002010B5104A136843F4807313604E
:102F28000320FEF74FFE00F0FDFC0C4B1B6A03F07C
:102F38000F030B4AD35CD8400A4B18600420FEF7F5
:102F48007BFE0F20FFF790FF10B10124204610BD33
:102F58000446FEF7CDFDF9E700200240000C0246CA
:102F6800D020010808000020034B1B78034A116891
:102F78000B441360704700BF00000020580F00206A
:102F8800014B1868704700BF580F002038B5044639
:102F9800FFF7F6FF0546B4F1FF3F02D0044B1B785C
:102FA8001C44FFF7EDFF401BA042FAD338BD00BF19
:102FB8000000002003689A6912F0020F01D0002275
:102FC8009A6203689A6912F0010F03D19A6942F074
:102FD80001029A61704710B4019CC1F3090141EAEA
:102FE80002411943214321F0004102685368640DEE
:102FF80004F4806444F07F7444F4583444F47F74D7
:1030080044F0030423EA04030B4353605DF8044BC4
:1030180070472DE9F041044603689E6916F01006D2
:103028007CD00D4690461022DA6100263746236888
:10303800986910F0200F30D17FBBB5F1FF3FF6D073
:10304800FFF79EFFA0EB0800A84201D8002DEED1A3
:1030580021684B6803F4804394F84220D2B288690F
:1030680010F4004F02D00BB9202A0ED123689B69B7
:1030780013F0200FDBD1FFF783FFA0EB080019281E
:10308800F4D946F020060127D1E74B6843F4804382
:103098004B60FFF775FF8046E8E70FB92022DA6139
:1030A80046F0040601252268936913F4807F05D051
:1030B80046F001064FF48071D161012513F4806F49
:1030C80006D046F0080622684FF48061D1610125D8
:1030D80013F4007F24D046F0020623684FF40072F0
:1030E800DA6101252046FFF765FF2268536823F05F
:1030F800FF7323F48B3323F4FF7323F0010353602E
:10310800636C33436364202384F84130002384F8DC
:10311800423084F840302846BDE8F0810025C2E7F7
:10312800002DF8D0DEE770B504460D461646236834
:103138009B6913F0020F22D1324629462046FFF739
:1031480068FFF0B9B5F1FF3FF1D0FFF719FF801B19
:10315800A84201D8002DEAD123689B6913F0020F19
:10316800E5D1636C43F020036364202384F8413085
:10317800002384F8423084F84030012000E0002029
:1031880070BD0120FCE72DE9F8430546884617463F
:103198001E46DDF820902B689C6938EA04040CBFB1
:1031A80001230023BB4227D14A4631462846FFF770
:1031B80030FF20BBB6F1FF3FEDD0FFF7E1FEA0EBFB
:1031C8000900B04201D8002EE5D12B689B6938EA86
:1031D80003030CBF01230023BB42DCD16B6C43F01B
:1031E80020036B64202385F84130002385F84230A2
:1031F80085F84030012000E00020BDE8F883012078
:10320800FBE700002DE9F04182B0044690461D46D8
:10321800089E099F194B00934FF08073EAB2FFF79D
:10322800DAFE3A4631462046FFF77DFFF8B9012D10
:103238000ED123685FFA88F29A620097334600221B
:1032480080212046FFF79FFFA8B902B0BDE8F081B2
:1032580023684FEA18229A623A4631462046FFF719
:1032680062FF30B923685FFA88F29A62E5E70120C5
:10327800EBE70120E9E70120E7E700BF0020008035
:103288002DE9F04182B0044690461D46089E099FEC
:10329800184B00930023EAB2FFF79DFE3A463146E9
:1032A8002046FFF740FFF8B9012D0ED123685FFAD9
:1032B80088F29A6200973346002240212046FFF7A1
:1032C80062FFA8B902B0BDE8F08123684FEA18226E
:1032D8009A623A4631462046FFF725FF30B92368FF
:1032E8005FFA88F29A62E5E70120EBE70120E9E757
:1032F8000120E7E70020008070B504460D46164619
:1033080004E023689B6913F0200F12D023689B699F
:1033180013F0200F1BD1324629462046FFF779FECD
:10332800B8B9FFF72DFE801BA842EAD8002DEDD1D1
:10333800E7E7636C43F020036364202384F841309B
:10334800002384F8423084F84030012000E0002057
:1033580070BD0120FCE700285FD010B5044690F846
:103368004130002B48D0242384F841302268136868
:1033780023F0010313606368226823F0706313610C
:103388002268936823F400439360E368012B38D0E4
:10339800A368226843F404439360E368022B36D0A1
:1033A8002268536823F4006353602268536843F02B
:1033B800007343F4004353602268D36823F4004346
:1033C800D360236962691343A169226843EA012330
:1033D800D360E369216A22680B431360226813688B
:1033E80043F00103136000206064202384F8413017
:1033F800206384F8420010BD80F84030FDF7AEFF2E
:10340800B1E7A368226843F400439360C5E72268E4
:10341800536843F400635360C7E701207047A8B1BD
:1034280010B50446242380F841300268136823F05D
:1034380001031360FDF7DEFF0020606484F841009B
:10344800206384F8420084F8400010BD01207047D2
:103458002DE9F04F83B00E46BDF834A00E9D90F8CC
:103468004110C9B2202940F0BB80044690469946D5
:103478000C9BCBB1BAF1000F16D090F84030012B5D
:1034880000F0B2804FF0010B80F840B0FFF778FDF4
:103498000746009019235A464FF400412046FFF78B
:1034A80072FE30B101209CE04FF400736364012088
:1034B80097E0212384F84130402384F842300023E8
:1034C80063640C9A6262A4F82AA06363019700956A
:1034D8004B46424631462046FFF794FE70B9638D4D
:1034E8009BB2FF2B0FD9FF222285002300934FF0B8
:1034F800807331462046FFF76EFD21E0002384F8F3
:10350800403058466DE0628D92B2228500230093C8
:103518004FF00073D2B231462046FFF75CFD0FE052
:10352800628D92B22285002300934FF00073D2B2CD
:1035380031462046FFF74FFD638D9BB2002B33D0F9
:103548003A4629462046FFF7EEFD00284ED1626A2A
:10355800236812789A62636A01336362638D9BB24F
:10356800013B9BB26385238D013B9BB22385628D12
:1035780092B2002AE0D0002BDED100972B46002221
:1035880080212046FFF7FFFD90BB638D9BB2FF2B88
:10359800C6D9FF222285002300934FF0807331465D
:1035A8002046FFF718FDC7E73A4629462046FFF7A9
:1035B800A3FEF8B923682022DA6121684B6823F05A
:1035C800FF7323F48B3323F4FF7323F001034B6061
:1035D80084F84120002384F8423084F8403000E029
:1035E800022003B0BDE8F08F0220FAE70120F8E7D7
:1035F8000120F6E70120F4E72DE9F04F83B00E46ED
:10360800BDF834A00E9D90F84110C9B2202940F0B1
:10361800BC800446904699460C9BCBB1BAF1000F8A
:1036280016D090F84030012B00F0B3804FF0010B1A
:1036380080F840B0FFF7A4FC0746009019235A46CB
:103648004FF400412046FFF79EFD30B101209DE078
:103658004FF400736364012098E0222384F841301A
:10366800402384F84230002363640C9A6262A4F811
:103678002AA06363019700954B464246314620468F
:10368800FFF7FEFD70B9638D9BB2FF2B0FD9FF22A8
:103698002285444B00934FF0807331462046FFF754
:1036A8009AFC21E0002384F8403058466EE0628D91
:1036B80092B222853B4B00934FF00073D2B2314651
:1036C8002046FFF788FC0FE0628D92B22285002326
:1036D80000934FF00073D2B231462046FFF77BFCCF
:1036E800638D9BB2002B34D000972B460022042117
:1036F8002046FFF748FD00284DD123685A6A636ABF
:103708001A70636A01336362228D013A92B222858C
:10371800638D9BB2013B9BB26385638D9BB2002B8B
:10372800DED0002ADCD100972B4680212046FFF707
:103738002AFD90BB638D9BB2FF2BC5D9FF22228542
:10374800002300934FF0807331462046FFF743FC77
:10375800C6E73A4629462046FFF7CEFDF8B9236862
:103768002022DA6121684B6823F0FF7323F48B333E
:1037780023F4FF7323F001034B6084F841200023F6
:1037880084F8423084F8403000E0022003B0BDE8FD
:10379800F08F0220FAE70120F8E70120F6E7012080
:1037A800F4E700BF00240080406C7047034690F89F
:1037B8004120D2B2202A23D190F84020012A21D0DA
:1037C800012280F84020242280F841200068026805
:1037D80022F0010202601868026822F48052026036
:1037E800186802681143016019680A6842F001020A
:1037F8000A60202283F84120002083F840007047A7
:103808000220704702207047034690F84120D2B248
:10381800202A21D190F84020012A1FD0012280F8C7
:103828004020242280F841200068026822F001022A
:1038380002601868026822F4706242EA012202609B
:1038480019680A6842F001020A60202283F84120C0
:10385800002083F84000704702207047022070471C
:1038680030B583B004462D4BD3F8943013F0040FD1
:103878000FD003F043F9B0F5403F20D0B0F5003F3A
:103888001DD0B4F1805F2CD2B0F5803F40D001202C
:1038980025E0224DD5F8943043F00403C5F8943060
:1038A800D5F8943003F004030193019B03F026F943
:1038B800D5F8943023F00403C5F89430DBE7B4F16D
:1038C800805F23D20120164A136823F00F030343B5
:1038D8001360136803F00F0383421DD1002003B067
:1038E80030BDB4F1005F05D9A0B9B4F1405FEAD8A2
:1038F8000120E8E7B4F1805F01D00120E3E7B0F5EB
:10390800803F01D00220DEE70120DCE70020DAE773
:103918000320D8E70020D6E70120E0E7000C0246A4
:103928000020024010B4594AD369926A13F00C037C
:1039380010D002F003020C2B0AD0544AD26902F0CC
:103948000C02042A20D0082B21D00020044610E0C5
:10395800012AF2D14D4A926812F4000F0ED14B4A57
:10396800D2F8F420C2F30332494951F822404BB14E
:1039780000200C2B0ED05DF8044B7047434A926828
:10398800120FF1E72046F4E742480024F1E74148E6
:103998000024EEE73D49886A00F003008B6AC3F310
:1039A8000323013307EE103A8B6AC3F3001C8B6BB9
:1039B800C3F3CC030CFB03F307EE903AF8EE677AF7
:1039C80002281ED0032846D006EE904AF8EE666A12
:1039D800B8EE477A86EE876A2C4B5B6BC3F3080315
:1039E80007EE103AB8EE477ADFED2B6A67EEA67A53
:1039F80077EE277AB7EE007A77EE877A66EE276A4F
:103A080019E0B8EE477A9FED256AC6EE076A1F4BA4
:103A18005B6BC3F3080307EE103AB8EE477A9FEDE5
:103A28001E6A67EE867A77EE277AB7EE007A77EE27
:103A3800877A66EEA76A154B5B6BC3F3066301339F
:103A480007EE903AB8EE677AC6EE877AFCEEE77A28
:103A580017EE900A8FE7B8EE477A9FED106AC6EE28
:103A6800076A0A4B5B6BC3F3080307EE103AB8EE1C
:103A7800477A9FED096A67EE867A77EE277AB7EE7E
:103A8800007A77EE877A66EEA76AD4E7000C0246DA
:103A9800882001080024F400000000390024744B39
:103AA800002800F07181F0B583B00D4604467F4BC5
:103AB8001B6803F00F038B420BD27C4A136823F078
:103AC8000F030B431360136803F00F038B4240F09E
:103AD8005D81236813F0100F0CD06269744B5B6A28
:103AE80003F070039A4205D971494B6A23F07003B9
:103AF8001A434A62236813F0080F0ED022696C4BF0
:103B08001B6A1B0903F070039A4206D968490B6ABD
:103B180023F4E06343EA02130B62236813F0040FF3
:103B28000CD0E268624B1B6A03F070039A4205D915
:103B38005F490B6A23F070031A430A62236813F083
:103B4800020F0CD0A2685A4B1B6A03F00F039A426B
:103B580005D957490B6A23F00F031A430A622368F1
:103B680013F0010F00F0A8806368032B0AD0022B22
:103B780061D0002B66D14E4B1B6813F0040F26D181
:103B88000120FFE04A4BD3F8943013F0040F0ED114
:103B9800474BD3F8942042F00402C3F89420D3F89A
:103BA800943003F004030193019B012700E00027F0
:103BB800FFF7E6F906463F4BDB6813F4802F26D162
:103BC8008FBB3B4B1B6813F0007F00F0E180384A45
:103BD800D36923F0030361680B43D361FFF7D0F97E
:103BE80006466368032B34D0022B41D0002B4ED0FD
:103BF8002F4BDB6903F00C03042B5DD0FFF7C0F9F2
:103C0800801B41F288339842F2D90320BAE0294B4D
:103C1800DB6813F4804FD3D1FFF7B2F9801B022879
:103C2800F5D90320AEE0224AD2F8943023F00403F9
:103C3800C2F89430C5E71E4B1B6813F4003FC6D189
:103C480001209FE01A4B1B6813F4806FBFD101203D
:103C580098E0174BDB6903F00C030C2B2CD0FFF713
:103C68008FF9831B41F288329342F2D9032089E00D
:103C78000F4BDB6903F00C03082B1DD0FFF780F90D
:103C8800801B41F288339842F2D903207AE0084B2E
:103C9800DB6913F00C0F0FD0FFF772F9801B41F2AC
:103CA80088339842F3D903206CE000BF002002401B
:103CB800000C024600080246236813F0020F0CD0DD
:103CC800A268354B1B6A03F00F039A4205D23249AA
:103CD8000B6A23F00F031A430A62304B1B6803F088
:103CE8000F03AB420AD92D4A136823F00F032B4365
:103CF8001360136803F00F03AB424BD1236813F032
:103D0800040F0CD0E268244B1B6A03F070039A423C
:103D180005D221490B6A23F070031A430A6223680B
:103D280013F0080F0ED022691B4B1B6A1B0903F006
:103D380070039A4206D218490B6A23F4E06343EAF7
:103D480002130B62236813F0100F0CD06269124B38
:103D58005B6A03F070039A4205D20F494B6A23F05D
:103D680070031A434A62FFF7DDFD0B4B1B6A03F031
:103D78000F030B4AD35CD8400A4B18600A4B1868EB
:103D8800FFF772F803B0F0BD012070470120F9E792
:103D98000120F7E70120F5E7000C02460020024069
:103DA800D0200108080000200400002008B5FFF713
:103DB800B9FD054B1B6A03F00F03044AD35CD840D6
:103DC800034B186008BD00BF000C0246D020010854
:103DD80008000020002800F02A85F0B585B00446C8
:103DE8009C4BDD6905F00C059E6A06F00306036826
:103DF80013F0100F00F09480EDB10C2D19D0E36989
:103E0800002B00F01181934A136843F001031360FB
:103E1800FFF7B6F807468F4B1B6813F0040F40F006
:103E2800CD80FFF7ADF8C01B0228F4D9032000F0BD
:103E380001BD012EE3D1E369002B00F0FA84606A2A
:103E4800844B9B6813F4000F1CD0824B9B6803F0D3
:103E58007043984244D9E5B17E4A936843F400031D
:103E68009360936823F07043616A0B439360636ABD
:103E7800B3F1404F14D3D36823F01F03216A0B43D7
:103E8800D36044E0734BD3F8F4301B0403F0704361
:103E9800DFE7FFF7E5FC0028DED0012000F0CABC10
:103EA800002B0BDBB3F1804F11D36A4AD36823F49C
:103EB800F843216A43EA8123D36028E0654AD3683E
:103EC80023F47873216A43EA4113D3601FE0614AFF
:103ED800D36823F47823216A43EAC133D36016E018
:103EE8005C4A936843F400039360936823F070433B
:103EF800616A0B439360636AB3F1404F36D3D3686A
:103F080023F01F03216A0B43D360002D4ED0FFF727
:103F18004DFF514B1868FEF7A7FF002840F08A8430
:103F2800236813F0010F00F0A080082D00F099809D
:103F38000C2D00F093806368B3F5803F00F0B680E5
:103F4800B3F5A02F00F0C880B3F5A81F00F0D28009
:103F5800404B1A6822F480321A601A6822F48022D0
:103F68001A601A6822F480121A60A4E0002B0BDB96
:103F7800B3F1804F11D3374AD36823F4F843216A49
:103F880043EA8123D360C0E7324AD36823F47873C5
:103F9800216A43EA4113D360B7E72E4AD36823F472
:103FA8007823216A43EAC133D360AEE7606AFFF73A
:103FB80057FC0028ABD0012000F03CBC254A936890
:103FC80043F400039360936823F07043616A0B43E2
:103FD8009360636AB3F1404F06D3D36823F01F039D
:103FE800216A0B43D3609BE7002B0BDBB3F1804FB7
:103FF80011D3184AD36823F4F843216A43EA81238A
:10400800D3608DE7134AD36823F47873216A43EAAF
:104018004113D36084E70F4AD36823F47823216AD5
:1040280043EAC133D3607BE70A4A136823F00103EC
:104038001360FEF7A5FF0746064B1B6813F0040F35
:104048003FF46EAFFEF79CFFC01B0228F4D9032093
:10405800F0E300BF000C024604000020032E7FF4AA
:104068006AAF6368002B00F0E783236813F0020F40
:104078006BD0042D5DD00C2D59D0E368002B00F0D7
:10408800BF80AA4A136843F480731360FEF778FF71
:104098000546A64B1B6813F4806F40F0A880FEF716
:1040A8006FFF401B0228F4D90320C3E39F4A13681B
:1040B80043F480331360636853B3FEF761FF074628
:1040C8009A4B1B6813F4003FCFD1FEF759FFC01B72
:1040D8006428F5D90320ADE3944B1A6842F4802292
:1040E8001A601A6822F480121A601A6842F4803240
:1040F8001A60E0E78D4B1A6842F480221A601A6849
:1041080042F480121A601A6842F480321A60D2E7C8
:10411800FEF736FF0746854B1B6813F4003FA4D013
:10412800FEF72EFFC01B6428F5D9032082E3022E78
:10413800A3D1E368002B00F081837C4A136923F440
:10414800F813216943EA01431361236813F0080F48
:1041580000F0AF80754BD3F8943013F0040F63D19F
:10416800724BD3F8942042F00402C3F89420D3F899
:10417800943003F004030193019B01256C4B9B6A67
:1041880013F0010F52D06369002B7AD0674BD3F834
:10419800F030A16903F08052914211D003F04062DF
:1041A800B2F1006F00F04C8313F0806F52D15F4A78
:1041B800D2F8F03023F08053A1690B43C2F8F030F5
:1041C8005A4AD2F8F03043F08063C2F8F030FEF774
:1041D800D7FE0646554BD3F8F03013F0006F67D181
:1041E800FEF7CEFE801B0528F4D9032022E34F4AB0
:1041F800136923F4F813216943EA01431361A4E71F
:104208004A4A136823F480731360FEF7B9FE054623
:10421800464B1B6813F4806F97D0FEF7B1FE401B26
:104228000228F5D9032005E30025A7E7404A936A49
:1042380043F001039362FEF7A3FE06463C4B9B6ADC
:1042480013F0010F9FD1FEF79BFE801B0228F5D9C2
:104258000320EFE2354AD2F8F03023F0A053C2F839
:10426800F030FEF78DFE0646304BD3F8F03013F0F1
:10427800006F9CD0FEF784FE801B0528F4D903202C
:10428800D8E22A4AD2F8F03023F0A053C2F8F0302E
:10429800FEF776FE0646254BD3F8F03013F0006F94
:1042A80006D0FEF76DFE801B0528F4D90320C1E275
:1042B80095BB236813F0040F00F0D9801B4BD3F88B
:1042C800943013F0040F2FD1184BD3F8942042F0F8
:1042D8000402C3F89420D3F8943003F00403029343
:1042E800029B0125124B9B6A13F0010F22D0A36891
:1042F80013F0010F3AD013F0040F2FD00B4BD3F863
:10430800F02042F00402C3F8F020D3F8F02042F085
:104318000102C3F8F02036E0044AD2F8943023F0C2
:104328000403C2F89430C4E70025DBE7000C02461A
:1043380000080246A84A936A43F001039362FEF715
:104348001FFE0646A44B9B6A13F0010FCFD1FEF760
:1043580017FE801B0228F5D903206BE29F4AD2F88A
:10436800F03043F00103C2F8F0300CE09B4BD3F877
:10437800F02022F00102C3F8F020D3F8F02022F058
:104388000402C3F8F020A368002B41D0FEF7F8FD23
:104398000646924BD3F8F03013F0020F08D1FEF71F
:1043A800EFFD801B41F288339842F2D9032041E2A5
:1043B800A36813F0800F15D0884AD2F8F03043F084
:1043C8008003C2F8F030854BD3F8F03013F4006F57
:1043D8004CD1FEF7D5FD801B41F288339842F2D9C3
:1043E800032027E27D4AD2F8F03023F08003C2F898
:1043F800F0307A4BD3F8F03013F4006F36D0FEF774
:10440800BFFD801B41F288339842F2D9032011E2A4
:10441800FEF7B6FD0646714BD3F8F03013F0020FE5
:1044280008D0FEF7ADFD801B41F288339842F2D9DF
:104438000320FFE1694BD3F8F03013F0800F15D05B
:10444800664AD2F8F03023F08003C2F8F030634BAC
:10445800D3F8F03013F4006F08D0FEF791FD801BFD
:1044680041F288339842F2D90320E3E1CDB92368B9
:1044780013F0200F31D0E36ADBB1584A136843F4D4
:1044880080531360FEF77CFD0546544B1B6813F4FC
:10449800005F22D1FEF774FD401B0228F5D90320E6
:1044A800C8E14E4AD2F8943023F00403C2F894309D
:1044B800DDE74A4A136823F480531360FEF760FD72
:1044C8000546464B1B6813F4005F06D0FEF758FDFF
:1044D800401B0228F5D90320ACE1236813F0800FB4
:1044E80029D0236B9BB13D4A136843F48043136082
:1044F800FEF746FD0546394B1B6813F4004F1AD1E9
:10450800FEF73EFD401B0228F5D9032092E1334A0D
:10451800136823F480431360FEF732FD05462F4BE2
:104528001B6813F4004F06D0FEF72AFD401B022833
:10453800F5D903207EE1236813F0400F64D0636B44
:10454800002B4DD0254A936843F400039360936889
:1045580023F07063A16A0B439360636AB3F1404F21
:1045680019D3D36823F01F03216A0B43D3601B4A76
:10457800136843F010031360FEF702FD0546174B5E
:104588001B6813F0200F3FD1FEF7FAFC401B0228EE
:10459800F5D903204EE1002B0BDBB3F1804F11D38B
:1045A8000E4AD36823F4F843216A43EA8123D3608F
:1045B800DDE70A4AD36823F47873216A43EA411392
:1045C800D360D4E7054AD36823F47823216A43EA01
:1045D800C133D360CBE700BF00080246000C024697
:1045E800A14A136823F010031360FEF7C9FC0546BF
:1045F8009D4B1B6813F0200F06D0FEF7C1FC401B33
:104608000228F5D9032015E1A36B002B00F01A81CD
:10461800954AD26902F00C020C2A00F0BC80022BE9
:1046280014D0914A136823F080731360FEF7A8FC36
:1046380004468D4B1B6813F0007F00F0A380FEF743
:104648009FFC001B0228F4D90320F3E0864A136874
:1046580023F080731360FEF793FC0546824B1B68BA
:1046680013F0007F06D0FEF78BFC401B0228F5D91B
:104678000320DFE07C4BD3F8943013F0040F68D1AB
:10468800794BD3F8942042F00402C3F89420D3F86D
:10469800943003F004030393039B0125734BDB68F9
:1046A80013F4802F57D10026704AD36823F480234F
:1046B800D3606D4B9A6A22F47F4222F00302E16BC9
:1046C800206C013841EA0021606C01430A439A6278
:1046D8005A6B67481040A26C013AC2F30802E16CB9
:1046E8000139490289B20A43216D0139090401F4EB
:1046F800FE010A43616D0139090601F0FE410A43D2
:10470800104358639A6A22F010029A62E26DD2004E
:104718009A639A6A42F010029A629A6A22F00C022C
:10472800A16D0A439A62C6B9EDB94F4A136843F0BE
:1047380080731360FEF724FC04464B4B1B6813F090
:10474800007F18D1FEF71CFC001B0228F5D90320B6
:1047580070E00025A2E70126A6E7444AD36843F49F
:104768008023D360E0E7404AD2F8943023F0040372
:10477800C2F89430D9E73C4A936A43F480239362A1
:10478800002057E0384A936A23F4E02323F0030318
:10479800936200204EE0344A916A506B012B53D04B
:1047A80001F00303E26B934250D1C1F30322236C5F
:1047B800013B9A424CD101F47041636C994249D152
:1047C800C0F30802A36C013B9A4245D1C0F34622CC
:1047D800E36C013B9A4241D1C0F30642236D013B91
:1047E8009A423DD1C0F30660636D013B984239D1CE
:1047F8001D4B9B6BC3F3CC03E26D934201D10020A8
:1048080018E0194A936A23F010039362FEF7B8FB85
:104818000546FEF7B5FBA842FBD0E26DD200124B6D
:104828009A639A6A42F010029A62002002E001201C
:104838007047012005B0F0BD0120FBE70120F9E732
:104848000120F7E70020F5E70120F3E70120F1E771
:104858000120EFE70120EDE70120EBE70120E9E780
:104868000120E7E70120E5E7000C024600080246C0
:104878000000808008B5FFF799FA044B1B6AC3F360
:104888000213034AD35CD84008BD00BF000C02469F
:10489800C820010808B5FFF789FA044B1B6AC3F35F
:1048A8000223034AD35CD84008BD00BF000C02466F
:1048B800C820010808B5FFF779FA044B5B6AC3F30F
:1048C8000213034AD35CD84008BD00BF000C02465F
:1048D800C820010838B50546344A136823F08053C8
:1048E8001360FEF74DFB0446304B1B6813F0005F66
:1048F80006D0FEF745FB001B0228F5D9032038BD7A
:104908002A4B1A6B22F4706222F003022968686845
:10491800013841EA00210A431A635A6C24481040BE
:10492800AA68013AC2F30802E9680139490289B262
:104938000A4329690139090401F4FE010A43696936
:104948000139090601F0FE410A43104358641A6B05
:1049580022F00C02A9690A431A631A6B296A0A43EE
:104968001A631A6B22F010021A639A6C6FF3CF0263
:10497800E96942EAC1029A641A6B42F010021A63AA
:104988001A6842F080521A60FEF7FAFA0446074B9A
:104998001B6813F0005F06D1FEF7F2FA001B02282D
:1049A800F5D90320ABE70020A9E700BF000C0246B9
:1049B8000000808038B50546344A136823F08063C8
:1049C8001360FEF7DDFA0446304B1B6813F0006FE6
:1049D80006D0FEF7D5FA001B0228F5D9032038BD0A
:1049E8002A4BDA6A22F4706222F0030229686868A6
:1049F800013841EA00210A43DA62DA6B24481040A0
:104A0800AA68013AC2F30802E9680139490289B281
:104A18000A4329690139090401F4FE010A43696955
:104A28000139090601F0FE410A431043D863DA6AE6
:104A380022F00C02A9690A43DA62DA6A296A0A438F
:104A4800DA62DA6A22F01002DA621A6C6FF3CF02C5
:104A5800E96942EAC1021A64DA6A42F01002DA62CB
:104A68001A6842F080621A60FEF78AFA0446074B19
:104A78001B6813F0006F06D1FEF782FA001B0228AC
:104A8800F5D90320ABE70020A9E700BF000C0246D8
:104A9800000080802DE9F04182B00446036813F0DD
:104AA800010F08D0AB4AD2F8E03023F00303016DC0
:104AB8000B43C2F8E030236813F0020F08D0A54A70
:104AC800D2F8E03023F00C03616D0B43C2F8E030FC
:104AD800236813F0040F08D09E4AD2F8E03023F080
:104AE8003003A16D0B43C2F8E030236813F0080FC0
:104AF80008D0984AD2F8E03023F0C003E16D0B43A8
:104B0800C2F8E030236813F0100F08D0914AD2F8A9
:104B1800E03023F44073216E0B43C2F8E030236881
:104B280013F0200F08D08B4AD2F8E83023F007039F
:104B3800616E0B43C2F8E830236813F0400F08D0C9
:104B4800844AD2F8E03023F44063A16E0B43C2F8E4
:104B5800E030236813F0800F08D07E4AD2F8E030A6
:104B680023F44053E16E0B43C2F8E030236813F49A
:104B7800807F08D0774AD2F8E83023F0C003216F4D
:104B88000B43C2F8E830236813F4800F08D0714A49
:104B9800D2F8E03023F44043616F0B43C2F8E030B1
:104BA800236813F4007F08D06A4AD2F8E83023F467
:104BB8004063A16F0B43C2F8E830236813F4806F99
:104BC80008D0644AD2F8E03023F44023E16F0B4365
:104BD800C2F8E030236813F4006F09D05D4AD2F8B8
:104BE800E83023F44073D4F880100B43C2F8E8305F
:104BF800236813F4005F36D0D4F89030402B13D0DC
:104C08000BD81BB3202B05D104F12C00FFF762FE53
:104C1800054620E00126354627E0602B1FD0802B73
:104C28001FD00126354620E04A4A936A43F4803370
:104C380093620025474AD2F8E43023F0E003D4F821
:104C480090100B43C2F8E43000260EE004F108008F
:104C5800FFF7B0FE0546002DECD02E4605E00025F6
:104C6800E8E70025E6E700263546236813F4804F79
:104C78002BD0D4F89430B3F5007F16D00CD8D3B32A
:104C8800B3F5807F05D104F12C00FFF723FE05461C
:104C980010E00126354618E0B3F5407F0AD0B3F599
:104CA800806F07D0012635460FE02A4A936A43F4FD
:104CB800803393622DBB274AD2F8E43023F4E063B3
:104CC800D4F894100B43C2F8E430236813F4004F6F
:104CD80032D0D4F8A430B3F5005F1BD013D9B3F5A4
:104CE800804F1CD0B3F5A04F19D0B3F5405F16D054
:104CF8000126354620E004F10800FFF75BFE054673
:104D0800D8E72E46E1E753B1B3F5805F07D0012617
:104D1800354611E004F10800FFF74CFE054655B989
:104D28000C4AD2F8E83023F4E043D4F8A4100B433B
:104D3800C2F8E83000E02E46236813F4803F1DD007
:104D4800D4F88830042B00F29E80DFE803F00A05CF
:104D5800960A0A00000C0246BD4A936A43F480335F
:104D68009362002D40F09280B94AD2F8E43023F0E3
:104D78000703D4F888100B43C2F8E430236813F40F
:104D8800003F1DD0D4F88C30B3F5003F00F08C8084
:104D980000F281803BB1B3F5803F79D1AC4A936A88
:104DA80043F480339362002D40F08480A84AD2F8FF
:104DB800E83023F4E023D4F88C100B43C2F8E83031
:104DC800236813F4802F00F09180A14BD3F894301E
:104DD80013F0040F70D19E4BD3F8942042F00402D4
:104DE800C3F89420D3F8943003F004030193019B93
:104DF8004FF00108974A936A43F001039362FEF764
:104E0800BFF80746934B9B6A13F0010F05D1FEF7D5
:104E1800B7F8C31B022BF5D90325002D61D18C4BA4
:104E2800D3F8F03013F4407316D0D4F8BC209A426B
:104E380012D0874AD2F8F03023F44073D2F8F01039
:104E480041F48031C2F8F010D2F8F01021F480312A
:104E5800C2F8F010C2F8F03013F0010F2FD1002D76
:104E680040F0E2807A4AD2F8F03023F44073D4F864
:104E7800BC100B43C2F8F03034E004F12C00FFF70B
:104E880029FD05466DE70126354677E72E4675E785
:104E98000126354694E7B3F5403F84D0B3F5802F1B
:104EA80081D0012635468BE704F12C00FFF712FD6F
:104EB800054678E72E4683E74FF000089AE7FEF7A5
:104EC8005FF80746624BD3F8F03013F0020FC6D1F3
:104ED800FEF756F8C01B41F288339842F2D90325F1
:104EE800BDE72E46B8F1000F40F0A080236813F408
:104EF800801F1ED0D4F89C30B3F1006F00F0AC8056
:104F080000F29F8043B1B3F1806F40F0978004F1C5
:104F18000800FFF74FFD0546002D40F0A3804C4ADE
:104F2800D2F8E03023F04063D4F89C100B43C2F869
:104F3800E030236813F4002F0ED0D4F89830B3F57E
:104F4800805F00F09180B3F5005F00F08D80002B4A
:104F580000F08A8001263546236813F4001F0FD01D
:104F6800D4F8A030B3F5804F00F08A80384AD2F8E0
:104F7800E43023F48043D4F8A0100B43C2F8E430A3
:104F8800236813F4000F09D0314AD2F8E03023F433
:104F98004013D4F8B0100B43C2F8E030236813F084
:104FA800807F09D02A4AD2F8E03023F44033D4F87D
:104FB800B4100B43C2F8E030236813F0007F09D027
:104FC800234AD2F8E83023F01803D4F8B8100B437A
:104FD800C2F8E830236813F0806F15D0D4F8AC30ED
:104FE800B3F5001F52D0D4F8AC30B3F5401F53D0FE
:104FF800002D57D1164AD2F8E43023F44013D4F8E0
:10500800AC100B43C2F8E430236813F0006F5BD098
:10501800D4F88430B3F1807F46D0B3F1007F65D0F7
:10502800002B46D001264FE02E465BE7084AD2F80F
:10503800943023F00403C2F8943057E7012635462C
:1050480077E7B3F1406F3FF467AF0126354670E765
:10505800000C024600080246284A936A43F40033CB
:10506800936259E72E4664E745B92449D1F8E4200C
:1050780022F440521343C1F8E4306DE72E466BE743
:105088001E4A936A43F4803393626FE71B4A936A1C
:1050980043F400339362A6E704F10800FFF78AFCA3
:1050A8000546A5E72E46AFE7144A936A43F4003352
:1050B80093620DBB114AD2F8E03023F04073D4F864
:1050C80084100B43C2F8E030236813F0805F09D0E6
:1050D8000A4AD2F8E83023F40043D4F8A8100B4366
:1050E800C2F8E830304602B0BDE8F08104F10800AB
:1050F800FFF760FC0546DCE72E46E5E7000C0246B4
:1051080010B5824C616BC1F30801A36A03F0030C6C
:10511800A36AC3F303235A1CA36AC3F3001EA36B39
:10512800C3F3CC030EFB03F307EE903AF8EE677A6D
:10513800BCF1020F2ED0BCF1030F00F0BA80BCF115
:10514800010F00F08A80714B9B6813F4000F00F088
:10515800CD806E4B9B681B0F6D4C04EB830393ED66
:10516800006AB8EE466A07EE102AB8EE477AC6EE2D
:10517800076A07EE101AB8EE477A9FED666A67EE7F
:10518800867A77EE277AB7EE007A77EE877A66EE38
:10519800A77A1BE007EE102AB8EE477A9FED5E6A01
:1051A800C6EE076A594B5B6BC3F3080307EE103A68
:1051B800B8EE477A9FED576A67EE867A77EE277AD8
:1051C800B7EE007A77EE877A66EEA77A4F4B9B6A3E
:1051D80013F4803F00F090804C4B5B6BC3F3462385
:1051E80007EE103AB8EE477AF7EE006A37EE267AFD
:1051F800C7EE876AFCEEE66AC0ED006A434B9B6A1D
:1052080013F4003F7BD0414B5B6BC3F3064307EEBF
:10521800103AB8EE477AF7EE006A37EE267AC7EE0C
:10522800876AFCEEE66AC0ED016A384B9B6A13F4A4
:10523800802F67D0354B5B6BC3F3066307EE103ADC
:10524800B8EE477AF7EE006A37EE267AC7EE876A35
:10525800FCEEE66AC0ED026A10BD2C4B9B6813F4A5
:10526800000F20D0294B9B681B0F294C04EB8303AC
:1052780093ED006AB8EE466A07EE102AB8EE477A50
:10528800C6EE076A07EE101AB8EE477A9FED216A54
:1052980067EE867A77EE277AB7EE007A77EE877A26
:1052A80066EEA77A92E7194BD3F8F430C3F30333C9
:1052B800DBE707EE102AB8EE477A9FED176AC6EECD
:1052C800076A124B5B6BC3F3080307EE103AB8EE9C
:1052D800477A9FED106A67EE867A77EE277AB7EEFF
:1052E800007A77EE877A66EEA77A6FE7074BD3F8EE
:1052F800F430C3F303332FE7002303607EE7002372
:10530800436092E700238360A6E700BF000C0246D3
:1053180088200108000000390024744B10B5824C25
:10532800E16BC1F30801E36A03F0030CE36AC3F31A
:1053380003235A1CE36AC3F3001E236CC3F3CC0394
:105348000EFB03F307EE903AF8EE677ABCF1020F12
:105358002ED0BCF1030F00F0BA80BCF1010F00F0B1
:105368008A80714B9B6813F4000F00F0CD806E4B60
:105378009B681B0F6D4C04EB830393ED006AB8EE3A
:10538800466A07EE102AB8EE477AC6EE076A07EEB5
:10539800101AB8EE477A9FED666A67EE867A77EE5E
:1053A800277AB7EE007A77EE877A66EEA77A1BE05F
:1053B80007EE102AB8EE477A9FED5E6AC6EE076AD6
:1053C800594BDB6BC3F3080307EE103AB8EE477A84
:1053D8009FED576A67EE867A77EE277AB7EE007AFE
:1053E80077EE877A66EEA77A4F4BDB6A13F4803F35
:1053F80000F090804C4BDB6BC3F3462307EE103A6A
:10540800B8EE477AF7EE006A37EE267AC7EE876A73
:10541800FCEEE66AC0ED006A434BDB6A13F4003F1A
:105428007BD0414BDB6BC3F3064307EE103AB8EE73
:10543800477AF7EE006A37EE267AC7EE876AFCEEFF
:10544800E66AC0ED016A384BDB6A13F4802F67D037
:10545800354BDB6BC3F3066307EE103AB8EE477AB9
:10546800F7EE006A37EE267AC7EE876AFCEEE66A40
:10547800C0ED026A10BD2C4B9B6813F4000F20D0BE
:10548800294B9B681B0F294C04EB830393ED006A9F
:10549800B8EE466A07EE102AB8EE477AC6EE076AF3
:1054A80007EE101AB8EE477A9FED216A67EE867A02
:1054B80077EE277AB7EE007A77EE877A66EEA77AE4
:1054C80092E7194BD3F8F430C3F30333DBE707EE65
:1054D800102AB8EE477A9FED176AC6EE076A124B94
:1054E800DB6BC3F3080307EE103AB8EE477A9FED7B
:1054F800106A67EE867A77EE277AB7EE007A77EE4B
:10550800877A66EEA77A6FE7074BD3F8F430C3F3D0
:1055180003332FE7002303607EE70023436092E70D
:1055280000238360A6E700BF000C0246882001081C
:10553800000000390024744B10B5824C616CC1F333
:105548000801236B03F0030C236BC3F303235A1CDA
:10555800236BC3F3001EA36CC3F3CC030EFB03F34E
:1055680007EE903AF8EE677ABCF1020F2ED0BCF144
:10557800030F00F0BA80BCF1010F00F08A80714B74
:105588009B6813F4000F00F0CD806E4B9B681B0FD7
:105598006D4C04EB830393ED006AB8EE466A07EEA0
:1055A800102AB8EE477AC6EE076A07EE101AB8EE68
:1055B800477A9FED666A67EE867A77EE277AB7EEC6
:1055C800007A77EE877A66EEA77A1BE007EE102A54
:1055D800B8EE477A9FED5E6AC6EE076A594B5B6C78
:1055E800C3F3080307EE103AB8EE477A9FED576AFF
:1055F80067EE867A77EE277AB7EE007A77EE877AC3
:1056080066EEA77A4F4B1B6B13F4803F00F0908037
:105618004C4B5B6CC3F3462307EE103AB8EE477A5F
:10562800F7EE006A37EE267AC7EE876AFCEEE66A7E
:10563800C0ED006A434B1B6B13F4003F7BD0414B1A
:105648005B6CC3F3064307EE103AB8EE477AF7EE01
:10565800006A37EE267AC7EE876AFCEEE66AC0ED86
:10566800016A384B1B6B13F4802F67D0354B5B6C8A
:10567800C3F3066307EE103AB8EE477AF7EE006A0E
:1056880037EE267AC7EE876AFCEEE66AC0ED026A54
:1056980010BD2C4B9B6813F4000F20D0294B9B683E
:1056A8001B0F294C04EB830393ED006AB8EE466A9E
:1056B80007EE102AB8EE477AC6EE076A07EE101A08
:1056C800B8EE477A9FED216A67EE867A77EE277AF9
:1056D800B7EE007A77EE877A66EEA77A92E7194BEB
:1056E800D3F8F430C3F30333DBE707EE102AB8EE40
:1056F800477A9FED176AC6EE076A124B5B6CC3F3D5
:10570800080307EE103AB8EE477A9FED106A67EE85
:10571800867A77EE277AB7EE007A77EE877A66EEA2
:10572800A77A6FE7074BD3F8F430C3F303332FE7B7
:10573800002303607EE70023436092E70023836031
:10574800A6E700BF000C02468820010800000039C7
:105758000024744B00B58BB0A0F500430B4300F058
:10576800698348F20103984271F1000380F0D68002
:10577800A0F180030B4300F02184812871F100031C
:105788007CD2212871F1000354D250EA010300F0C1
:10579800C186013841F1FF31202871F1000103D39E
:1057A80000200BB05DF804FB1F28F9D801A353F8BB
:1057B80020F000BF5D5C0008A15C0008A957000844
:1057C800E55C0008A9570008A9570008A957000870
:1057D800295D0008A9570008A9570008A95700081B
:1057E800A9570008A9570008A9570008A957000891
:1057F8006D5D0008A9570008A9570008A9570008B7
:10580800A9570008A9570008A9570008A957000870
:10581800A9570008A9570008A9570008A957000860
:10582800A9570008A9570008A9570008A957000850
:10583800C95D0008403808431ED1B14BD3F8E030A9
:1058480013F4406300F0A283B3F5806F00F0A183E6
:10585800AB4A126812F4806F03D0B3F5006F00F002
:10586800BB86A74A106810F020009AD0B3F5406FA5
:1058780000F09283002094E7002092E7A0F50063EF
:105888000B4300F03E8440F60103984271F1000397
:1058980022D2A0F500730B4300F07C84A0F580634E
:1058A8000B4300F0C084A0F58070084312D1944BDC
:1058B800D3F8E83003F0C003802B00F0DB8300F25C
:1058C800B883002B00F0CD83402B40F0AF83FEF768
:1058D80029F866E7002064E7A0F500530B4300F0C1
:1058E800FC80A0F58040084316D1854BD3F8E430FE
:1058F80003F4E063B3F5007F00F0368100F2238102
:10590800002B00F03681B3F5807F40F01A8101A8A2
:10591800FFF712FE019844E7002042E7A0F5800354
:105928000B4300F0B683774B984271F100032CD3F8
:1059380000F17C430B4300F08E85734B984271F164
:10594800000374D200F17F430B4300F0F78400F1A9
:105958007E430B4300F03285A0F50000084364D174
:10596800674BD3F8E03003F44013B3F5001F00F0A1
:10597800CF8400F2B084002B00F0C684B3F5801FFA
:1059880040F0A684FDF7CEFF0BE7A0F500230B43FC
:1059980000F09E855D4B984271F100031DD2A0F581
:1059A80000330B4300F0B582A0F580230B4368D089
:1059B800A0F5803008430ED1514BD3F8E43003F002
:1059C8000703042B00F20186DFE813F088027E0249
:1059D80083027B028B020020E3E6A0F580130B43D1
:1059E80000F0CC80A0F5001008431CD1444BD3F83C
:1059F800E40010F4804040F02881D3F8E03003F050
:105A08004063B3F1006F00F00D8100F2F580002BC8
:105A180000F00D81B3F1806F7FF4C3AE04A8FFF7E7
:105A28007DFC0598BDE60020BBE60020B9E600F144
:105A380078430B4300F02B8400F1704008431ED1DB
:105A48002F4AD2F8E83003F40043D2F8F02012F0DD
:105A5800020F02D0002B00F00486294AD2F8F00089
:105A680010F000603FF49DAE002B00F0FE85D2F8E8
:105A7800F03013F0805F00F0FB85FA2091E60020FB
:105A88008FE61F4AD2F8F03003F44073D2F8F020C2
:105A980012F0020F03D0B3F5807F00F03E85184A5C
:105AA800D2F8F02012F0006F02D0B3F5007F0BD0CF
:105AB800134A126812F4003F00F03785B3F5407FAF
:105AC80000F0368500206CE60D4BD3F8F03013F06B
