:020000040800F2
:1000000000000C20A57C0008850E0008870E000863
:10001000890E00088B0E00088D0E0008F57C000884
:100020000000000000000000000000008F0E00082B
:10003000910E000800000000930E0008950E0008C5
:10004000F57C0008F57C0008F57C0008F57C0008CC
:10005000F57C0008F57C0008F57C0008F57C0008BC
:10006000F57C0008F57C0008F57C0008F57C0008AC
:10007000F57C0008F57C0008F57C0008F57C00089C
:10008000F57C0008F57C0008F57C0008F57C00088C
:10009000F57C0008F57C0008F57C0008F57C00087C
:1000A000F57C0008F57C0008F57C0008F57C00086C
:1000B000000000009D0E0008F57C0008F57C00089B
:1000C000F57C0008F57C0008F57C0008F57C00084C
:1000D000F57C0008F57C0008F57C0008F57C00083C
:1000E000F57C0008F57C0008F57C0008F57C00082C
:1000F000F57C0008F57C0008F57C0008F57C00081C
:10010000F57C0008F57C0008F57C0008F57C00080B
:10011000F57C0008F57C0008F57C0008F57C0008FB
:10012000F57C0008F57C0008F57C0008F57C0008EB
:10013000F57C0008F57C0008F57C0008F57C0008DB
:10014000F57C0008F57C0008F57C0008F57C0008CB
:10015000F57C0008F57C0008F57C0008F57C0008BB
:10016000F57C0008F57C0008F57C0008F57C0008AB
:10017000F57C0008F57C0008F57C0008F57C00089B
:10018000F57C0008F57C0008F57C0008F57C00088B
:10019000F57C0008F57C0008F57C0008F57C00087B
:1001A000F57C0008F57C0008F57C0008F57C00086B
:1001B000F57C000800000000F57C0008F57C0008D4
:1001C000F57C000800000000F57C0008F57C0008C4
:1001D000F57C0008F57C0008F57C0008F57C00083B
:1001E000F57C0008F57C0008F57C0008F57C00082B
:1001F0000000000000000000F57C0008F57C00080D
:10020000F57C0008F57C0008F57C0008F57C00080A
:10021000F57C0008F57C0008F57C0008AD0E0008B0
:10022000F57C0008F57C0008F57C0008F57C0008EA
:08023000F57C0008F57C0008D4
:1002380053B94AB9002908BF00281CBF4FF0FF3145
:100248004FF0FF3000F00CB8ADF1080C6DE904CEAA
:1002580007F032FEDDF804E0DDE9022304B0704760
:10026800704700BF0348044B834202D0034B03B1DD
:1002780018477047280000202800002000000000D0
:10028800064B0749C91A891048BF0131491003D0E4
:10029800044B0BB101481847704700BF28000020E5
:1002A800280000200000000010B5064C237843B950
:1002B800FFF7D8FF044B13B10448AFF300800123C4
:1002C800237010BD2800002000000000C081000835
:1002D80008B5054B1BB105490548AFF30080BDE8DB
:1002E8000840FFF7CDBF00BF000000002C00002031
:1002F800C081000808B500F0E3FE042000F0CEFE3F
:1003080008BD72B6FEE700B59FB06022002106A8BE
:1003180007F0EEFC002300930193029303930493E8
:1003280005934FF4403004F01FFE00282FD13023EE
:1003380006934FF48053119301230D9310220E92CC
:1003480000210F910222149215934FF40050179038
:10035800032016900820189019921A921B930C23C8
:100368001C931D9106A802F081F890B91F230093F1
:1003780003210191002302930393049340230593DF
:10038800684601F0D9FE30B91FB05DF804FBFFF7ED
:10039800B8FFFFF7B6FFFFF7B4FF000008B5FFF797
:1003A800A9FF01F09BFCFFF7AEFF00F01FF806F075
:1003B80059FD00F0EFF800F081FA00F0D9FB00F0E9
:1003C80001FA00F0BFFA00F053FC00F0D1FC064C33
:1003D8000021204605F042FE23685A225A6306F09F
:1003E80065FE07F0DBFAFEE7BC0200202DE9F047C6
:1003F8008CB000240794089409940A940B945F4BDA
:10040800D3F88C2042F00402C3F88C20D3F88C2057
:1004180002F004020192019AD3F88C2042F0800283
:10042800C3F88C20D3F88C2002F080020292029A42
:10043800D3F88C2042F00102C3F88C20D3F88C202A
:1004480002F001020392039AD3F88C2042F00202D0
:10045800C3F88C20D3F88C2002F002020492049A8C
:10046800D3F88C2042F01002C3F88C20D3F88C20EB
:1004780002F010020592059AD3F88C2042F0080287
:10048800C3F88C20D3F88C3003F008030693069B3E
:100498003B4F224648F23801384604F05FFDDFF84A
:1004A800EC9022464FF48051484604F057FD354EF3
:1004B80001224FF44061304604F050FD01224FF410
:1004C8008061384604F04AFDDFF8C4A022464FF4A4
:1004D8008061504604F042FD22460121304604F076
:1004E8003DFD48F2380307930125089509940A94BD
:1004F80007A9384604F01EFC4FF00308CDF81C800D
:10050800214B0893099507A9484604F013FC4FF4BA
:1005180080530793089509940A9407A9484604F05C
:1005280009FC4FF44063079308950995CDF8288096
:1005380007A9304604F0FEFB4FF48069CDF81C9003
:1005480008950995CDF8288007A9384604F0F2FBEC
:10055800CDF81C900895022309930A9407A95046E0
:1005680004F0E8FB0795089509940A9407A9304612
:1005780004F0E0FB0CB0BDE8F08700BF000C0246B9
:1005880000000242000C0242000021100004024256
:100598000008024208B50B480B4B03600023436078
:1005A8008360C36003614361836103624362836262
:1005B800C362036300F098FD00B908BDFFF7A1FE10
:1005C800FBE700BFF800002000C002422DE9F0431D
:1005D800A7B00446002121912291239124912591CD
:1005E8006C2206A807F084FB22686C4B9A4202D062
:1005F80027B0BDE8F0836A4BD3F88C2042F48052D0
:10060800C3F88C20D3F88C2002F480520192019A0E
:10061800D3F88C2042F00802C3F88C20D3F88C2041
:1006280002F008020292029AD3F88C2042F00402E7
:10063800C3F88C20D3F88C2002F004020392039AAA
:10064800D3F88C2042F00102C3F88C20D3F88C2018
:1006580002F001020492049AD3F88C2042F00202BC
:10066800C3F88C20D3F88C3003F002030593059B64
:100678004FF440732193022622960A27259721A931
:10068800484804F057FB4FF418632193229600253D
:10069800239524952597DFF8289121A9484604F049
:1006A80049FB4FF40078CDF8848022962395249551
:1006B8000423259321A9484604F03CFBCDF8848007
:1006C8002296239524950523259321A9364804F0DD
:1006D80031FB4FF470732193229623952495259727
:1006E80021A9324804F026FB2123069356230793B9
:1006F800089509950A954FF400230B930C964FF42F
:1007080000330D9301230F931093119512951395B0
:10071800179514951595264906A801F04EF958BB6A
:10072800234A0021234801F053F940BB214801F036
:10073800DBF938BB2048214B036000238363C36384
:10074800036443648123836401F008F9E8B9194913
:10075800194801F009FAD8B91748A064C4651021EE
:1007680000F079FEB8B900221146772000F01AFC93
:10077800772000F027FC3BE7FFF7C3FDD0E7FFF742
:10078800C0FDD3E7FFF7BDFDD4E7FFF7BAFDDEE70D
:10079800FFF7B7FDE0E7FFF7B4FDE4E700C002426A
:1007A800000C0246000C0242000002420004024211
:1007B800D4000020BC00002044000020500002406B
:1007C8000008024208B51548154B0360A3F15653BB
:1007D800A3F57A23A3F64423436000238360012210
:1007E800C260036143618361C361036201F0C6FAB9
:1007F80050B90021094801F025FB40B900210748FC
:1008080001F04EFB30B908BDFFF77BFDF1E7FFF7BC
:1008180078FDF3E7FFF775FDF5E700BF4801002015
:100828000028004610B5B8B0044600213391349131
:10083800359136913791C02202A807F059FA2268FB
:100848001B4B9A4201D038B010BD4FF48072002380
:10085800CDE9022302A802F069FC30BB154CD4F89C
:100868008C3043F00403C4F88C30D4F88C3003F097
:1008780004030093009B0323339312223492012232
:10088800359236930423379333A90B4804F052FA70
:10089800D4F8A83043F08003C4F8A830D4F8A830BE
:1008A80003F080030193019BCDE7FFF72AFDD5E70D
:1008B80000280046000C02460008024200B585B038
:1008C80000230193029303931C481D4A02604FF4CE
:1008D800800242604FF4003282600722C2600361E6
:1008E80043614FF0806181614FF08051C1610362C3
:1008F80043628362C2624FF0804242638363C36390
:100908008364C364036543658365C365036604F054
:100918001BFC68B9002301934FF0805202920393A5
:1009280001A9064804F03EFE28B905B05DF804FBAD
:10093800FFF7E7FCEEE7FFF7E4FCF6E72C02002000
:100948000030014000B585B0002301930293039362
:100958001A481B4A02604FF48002426083600721F4
:10096800C160036143614FF0806282614FF0804251
:10097800C261036243628362C16242638363C36389
:100988008364C364036543658365C365036604F0D4
:10099800DBFB68B9002301934FF080520292039366
:1009A80001A9064804F0FEFD28B905B05DF804FB6E
:1009B800FFF7A7FCEEE7FFF7A4FCF6E79C01002091
:1009C8000038004010B5BAB0044600213591369180
:1009D800379138913991C02204A807F089F9236822
:1009E8003A4A934204D03A4A934237D03AB010BDBB
:1009F8004FF400020023CDE904234FF48013309311
:100A080004A802F093FB30BB324BD3F8A42042F485
:100A18008052C3F8A420D3F8A42002F48052009294
:100A2800009AD3F88C2042F00102C3F88C20D3F846
:100A38008C3003F001030193019BC22335930223F9
:100A480036930023379338930523399335A92248E1
:100A580004F070F9CAE7FFF754FCD5E74FF080724D
:100A68000023CDE904234FF48033319304A802F026
:100A78005DFB38BB174BD3F89C2042F48042C3F887
:100A88009C20D3F89C2002F480420292029AD3F868
:100A98008C2042F00202C3F88C20D3F88C3003F08B
:100AA80002030393039B4FF4604335930223369369
:100AB8000023379338930523399335A9074804F061
:100AC80039F993E7FFF71DFCD4E700BF0030014078
:100AD80000380040000C02460000024200040242B6
:100AE80002680A4B9A4200D0704782B0084BD3F88C
:100AF800A42042F40062C3F8A420D3F8A43003F47D
:100B080000630193019B02B0704700BF002C0140B5
:100B1800000C024600B587B00023019302930393AB
:100B28000493059302680F4B9A4202D007B05DF810
:100B380004FB0D4BD3F88C2042F01002C3F88C2034
:100B4800D3F88C3003F010030093009B4FF400732C
:100B58000193022302930123059301A9034804F09A
:100B6800E9F8E3E7002C0140000C024600100242BD
:100B780010B59CB00024189419941A941B941594D9
:100B8800169417940E940F9410941194129413942D
:100B980014943422214601A807F0AAF83248334BAE
:100BA800036040F2CF73436084606323C3600461D1
:100BB8004461846105F030F8002842D14FF4805335
:100BC800189318A9284805F099F900283CD1264817
:100BD80005F052F800283AD100231593169317937D
:100BE80015A9214805F024FB002833D160230E9372
:100BF80050230F9300221092119212921392149282
:100C08000EA9194805F0D0F838BB002301930293C8
:100C18000393049305934FF40052069207930893A5
:100C280009934FF000720A920B930C930D9301A94C
:100C38000D4805F071FB98B90B48FFF76BFF1CB026
:100C480010BDFFF75EFBB9E7FFF75BFBBFE7FFF7F8
:100C580058FBC1E7FFF755FBC8E7FFF752FBD4E79E
:100C6800FFF74FFBE8E700BFBC020020002C014063
:100C780008B51748174B03604FF4E133436000236E
:100C88008360C36003610C2242618361C3610362B4
:100C98004362836205F0C9FD70B900210C4805F074
:100CA8003CFE60B900210A4805F05CFE50B90848CE
:100CB80005F014FE48B908BDFFF723FBEDE7FFF781
:100CC80020FBEFE7FFF71DFBF1E7FFF71AFBF2E761
:100CD800080300200048004010B5B8B004460021C1
:100CE80033913491359136913791C02202A806F09C
:100CF800FFFF22681B4B9A4201D038B010BD042276
:100D08000023CDE9022302A802F010FA30BB164BEB
:100D1800D3F89C2042F48022C3F89C20D3F89C206E
:100D280002F480220092009AD3F88C2042F0040248
:100D3800C3F88C20D3F88C3003F004030193019B93
:100D480030233393022334930023359336930723B8
:100D5800379333A9054803F0EDFFCEE7FFF7D1FA43
:100D6800D5E700BF00480040000C024600080242D8
:100D780008B50B480B4B0360062303710223C371AC
:100D8800437200238372C37203734373C373837301
:100D9800837105F00DFE00B908BDFFF7B2FAFBE755
:100DA8009C0300200000044210B5BAB0044600219C
:100DB80035913691379138913991C02204A806F0BF
:100DC80097FF22682A4B9A4201D03AB010BD4FF4DF
:100DD80080120023CDE9042304A802F0A7F9002813
:100DE80040D1244CD4F88C3043F00103C4F88C3043
:100DF800D4F88C3003F001030193019B4FF4C053E6
:100E08003593022336930023379338930A23399373
:100E180035A9194803F08EFFD4F88C3043F4804389
:100E2800C4F88C30D4F88C3003F480430293029BCE
:100E3800D4F8943013F0040F17D1D4F8943043F059
:100E48000403C4F89430D4F8943003F004030393F3
:100E5800039B04F0E1F8D4F8943023F00403C4F8B9
:100E68009430B2E7FFF74DFABBE704F0D5F8ACE7EA
:100E780000000442000C024600000242FEE7FEE7C2
:100E8800FEE7FEE7FEE770477047704708B500F0D9
:100E98004FFF08BD08B5024800F004FA08BD00BFBE
:100EA8004400002008B5044800F082F9034B1B6891
:100EB80003B1984708BD00BFF8000020840800204F
:100EC80008B5024B1B6803B1984708BD800800208D
:100ED80000B583B0084BD3F8942042F00402C3F85D
:100EE8009420D3F8943003F004030193019B04F099
:100EF80093F803B05DF804FB000C0246002807DBFA
:100F080000F01F02400901239340024A42F82030B2
:100F1800704700BF00E100E0002808DB0901C9B202
:100F280000F1604000F5614080F80013704700F060
:100F38000F000901C9B2014B1954704714ED00E0C4
:100F480000B500F00700C0F1070CBCF1040F28BF82
:100F58004FF0040C031D062B0FD9C31E4FF0FF3EA4
:100F68000EFA0CF021EA000199400EFA03FE22EA7B
:100F78000E0241EA02005DF804FB0023EEE70000E0
:100F8800074AD36823F4E0631B041B0C000200F437
:100F9800E060034343F0BF6343F40033D36070471A
:100FA80000ED00E010B50446054BD868C0F30220F8
:100FB800FFF7C6FF01462046FFF7AEFF10BD00BF92
:100FC80000ED00E008B5FFF799FF08BD0138B0F162
:100FD800807F09D24FF0E0235861002098611A6998
:100FE80042F003021A61704701207047042838D87C
:100FF800DFE800F00A18283703004FF0E0221369F1
:1010080043F00403136170474FF0E022136923F0A3
:1010180004031361134AD2F8E03023F44003C2F802
:10102800E03070474FF0E022136923F004031361A6
:101038000C4AD2F8E03023F4400343F48003C2F8AA
:10104800E03070474FF0E022136923F00403136186
:10105800044AD2F8E03023F4400343F40003C2F812
:10106800E0307047000C02464FF0E023186910F09A
:1010780004000CD1084BD3F8E03003F44003B3F577
:10108800800F06D0B3F5000F04D10220704704206A
:1010980070470120704700BF000C0246BFF35F8F06
:1010A80040F00100054BC3F894005A6A42F48032BC
:1010B8005A62BFF34F8FBFF36F8F704700ED00E0A8
:1010C800BFF35F8F074B5A6A22F480325A62D3F813
:1010D800942022F00102C3F89420BFF34F8FBFF38E
:1010E8006F8F704700ED00E0002848D010B5044627
:1010F80090F83530002B32D0022384F83530A369BC
:101108000BB100236362226811681E4B0B40136009
:1011180022681168636860690343E06803432069D3
:101128000343A0680343A0690343206A0343606A3A
:101138000343A06A0343E06A0343206B03430B4362
:1011480013606368102B0DD02268D36843F01E0328
:10115800D3600020E064012384F8353010BDFFF728
:1011680035FAC9E7237F627F43EA0223A27F43EA75
:101178000243E17F226843EA01639361E4E70120C7
:10118800704700BF07F0E0FF704708B5C06D836C7B
:101198009B6D022B06D0012380F83530C36C43F0D9
:1011A8004003C364FFF7F0FF08BD704770470000B5
:1011B80038B5044603681D6915F0040F20D115F0F1
:1011C800020F31D115F0100F44D115F0080F48D196
:1011D80015F0010F13D023681A6812F0020F03D01C
:1011E800DA6822F01E02DA602268D36823F001036D
:1011F800D360236801225A612046FFF761FE38BD9B
:1012080004225A61C36C43F00203C36480F835209A
:10121800836C174ADA66806C00F02CF80028CED070
:10122800A06CFFF7B2FFCAE7236802225A61E36C99
:1012380043F00103E364042384F83530A36C0C4ABB
:10124800DA66A06C00F016F80028BBD0A06CFFF797
:101258009CFFB7E7236810225A612046FFF7A5FFD5
:10126800B3E7236808225A612046FFF79FFFAFE7DC
:1012780093110008A0B190F85430DBB2022B03D0D0
:101288002023836501207047042380F854300268C6
:10129800536943F4005343F004035361002070473B
:1012A8000120704710B50446026822F47F6020F0E0
:1012B8000F00C2F30B03503BC3F3C413012101FA1F
:1012C80003F3C168194200F0C580136913F4806FF5
:1012D8000AD0536913F4806F06D04FF48063D3604B
:1012E800A36D43F00103A36523681A6912F4006F24
:1012F8000AD05A6912F4006F06D04FF40062DA601F
:10130800A36D43F00203A36523681A6912F4805F92
:101318000AD05A6912F4805F06D04FF48052DA601E
:10132800A36D43F00403A36523681A6912F4804F80
:101338000AD05A6912F4804F06D04FF48042DA601E
:10134800A36D43F00803A36523681A6912F4007FAC
:101358000AD05A6912F4007F06D04FF40072DA609E
:10136800636E0BB12046984723681A6912F4005F30
:1013780012D05A6912F4005F0ED04FF40052DA60AE
:1013880094F85430DBB2042B1DD0052384F8543074
:10139800236F0BB12046984723681A6912F4807F9F
:1013A80040D05A6912F4807F3CD0226D12F0800F31
:1013B80028D0DA6F5ABB9B6C4BBB012384F854309E
:1013C800626F137323E02268536923F40053536157
:1013D8002268536943F002035361012384F85430AF
:1013E800236D13F0800F05D0636F01221A732368F1
:1013F80000229A64002384F84C30E36E53B32046ED
:10140800984727E09B6C13B9012384F8543023686C
:101418004FF44072DA60002384F84C30236E0BB12D
:1014280020469847A36DABB12268536943F0020385
:101438005361012384F85430236D13F0800F02D0D8
:10144800636F01221A73002384F84C30A36E0BB12A
:101458002046984710BDE8B1036823F47F6020F068
:101468000F00C3F30B03503BC3F3C41301229A408C
:1014780011F0100F10D001F01101112905D04368A7
:1014880023EA020343600020704743681343436024
:10149800002070470120704700207047816BC36BA4
:1014A80019430368674A934200F08D8002F1805225
:1014B800934200F0888002F170428032934200F03B
:1014C800828002F1805293427DD002F170428032D4
:1014D800934278D002F18052934274D002F1704264
:1014E800803293426FD002F1805293426BD002F166
:1014F80070428032934266D002F18052934262D0A9
:1015080002F17042803293425DD002F180529342E0
:1015180059D002F170428032934254D002F1805285
:10152800934250D002F17042803293424BD002F184
:101538008052934247D002F170428032934242D0A7
:1015480002F1805293423ED002F1704280329342BF
:1015580039D002F18052934235D002F17042803284
:10156800934230D002F1805293422CD002F1704263
:101578008032934227D002F18052934223D002F165
:101588007042803293421ED002F1805293421AD0A8
:1015980002F170428032934215D002F18052934298
:1015A80011D002F17042803293420CD002F1805285
:1015B800934208D002F170428032934203D002F184
:1015C8008052934201D1026C11435A6922F44302BA
:1015D8000A435A610268002313640268416C51642B
:1015E800026893640268D364026813650368164A44
:1015F80093421ED002F1805293421AD002F17042F7
:101608008032934215D002F18052934211D002F1F8
:101618007042803293420CD002F18052934208D03B
:1016280002F170428032934203D002F18052934219
:1016380003D100225A6503689A6503680022DA67B5
:10164800704700BF500002405006024010B4436982
:10165800C2691343C26B134302691343826913437C
:101668000B60026812F0200F16D0C26A846B224306
:10167800846A04F1FF3C4FEA0C5C0CF07C7C42EA83
:101688000C02446A04F1FF3C4FEA0C1C0CF47C7C0D
:1016980042EA0C0213430B60036B426822F4C072E7
:1016A8009205920D13434B60C268B2F5806F64D007
:1016B800B2F5007F69D0436C4BB1026C1343826C66
:1016C800120402F47C1213434A6813434B60B0F8C7
:1016D80068308B60026812F0020F20D0C26C02F1F1
:1016E800FF3C434A02EA0C4213438B60026D002A16
:1016F8004FDB8B60436D002B4FDB8B6823F000536F
:101708008B60836D002B4DDB8B6823F080438B60EF
:10171800C36D002B4BDB8B6823F000438B60036E9B
:10172800CB60436E0B61036813F0020F1AD0036D90
:10173800002B41DBC3F30C034B61436D002B40DBF3
:101748004A692C4C04EA03431A434A61836D002B0F
:101758003FDB9BB28B61C36D002B3EDB8A6942EA9B
:1017680003428A6103680B6213F0020F3BD043F413
:10177800E0630B625DF8044B7047026812F0200FBB
:1017880099D043F480634B6095E743F400734B6052
:1017980091E743F080538B60ACE78B6843F00053CC
:1017A8008B60AEE78B6843F080438B60B0E78B6853
:1017B80043F000438B60B2E75B42C3F30C034B6119
:1017C800BBE75B424A690B4C04EA03431A434A618C
:1017D800BCE75B429BB28B61BDE75B428A6942EA28
:1017E80003428A61BEE743F4A0630B62C2E700BF0D
:1017F8000000FF070000FF1F844640EA010313436F
:1018080030B183EA0C03B3F5803F0AD20020704759
:1018180009B18C46F5E70AB19446F2E74FF0000C9F
:10182800EFE70120704768B190F8203019B191F8BE
:101838002010994210D18AB192F820209A420FD1F3
:101848000020704711B191F82030F0E712B192F8FA
:101858002030EBE70023E9E70220704700207047BB
:1018680003207047036A13F0020F06D009B1064B34
:101878000B6042B107231360704709B1034B0B603B
:101888000AB1052313607047000001FE000001F84B
:1018980030B5844615680C46E1B14FF0000E71462C
:1018A800734627E0BCF8020001EB004050F8250021
:1018B8008E464FF6FC7101400133DCF8080098426F
:1018C8002AD9002BEED1DCF8001021F0030109041D
:1018D800090CF1E74FF0000E71467346EDE7BCF8CE
:1018E800020001EB004050F825008E464FF6FC71CF
:1018F80001400133DCF8080098420DD94FF6FC701E
:101908002040884208D0002BE9D1DCF8001021F0F3
:1019180003010904090CECE72CB124F003042404A6
:10192800240C8C4218D19360BCF802304EEA034371
:101938005360BCF8023041EA0341D16051F82500F8
:1019480058B120F003000004000CBCF8023040EA53
:1019580003401061002000E0012030BD38B5044686
:1019680000F0F2F93CB305462268002384F84C30B5
:10197800022384F85430536943F006035361236803
:101988005B6913F0010F0BD000F0DEF9431B052B48
:10199800F5D91023A365032384F85430012009E006
:1019A8002046FFF77BFDA36C23650020A06501237B
:1019B80084F8543038BD0120FCE728B108B529B1B6
:1019C800FFF744FE002008BD012070470120FAE718
:1019D800002800F08580F0B589B00D46144606460B
:1019E800002A7FD04369012B0ED007683846FFF7DD
:1019F80003FF68B9224629463846FFF714FF60B14D
:101A080004233361012006E004230361012002E07E
:101A180005233361012009B0F0BD0223337300238D
:101A2800336106AA07A92046FFF71CFF3368DBB11C
:101A380065B3069B019301AA29463046FFF728FFA4
:101A4800002849D1B368039A9A4231D0069B55F8C9
:101A5800232044F8232024F003042404240C079AA8
:101A6800144345F823401BE065B1356024F00304B6
:101A78002404240C079B1C43069B45F8234002239F
:101A8800B36010E034600123B3600CE023F003037B
:101A98001B041B0C079A1343069A44F8223034603F
:101AA800B3680133B3600020306101233373B2E7B8
:101AB800736843B123F003031B041B0C079A1343F9
:101AC800069A44F822304FF6FC732340079A1343D2
:101AD800069A45F82230E3E70623336101209AE7A6
:101AE80001207047012096E7002839D030B589B029
:101AF8000446006840B1636853B1984232D0042369
:101B08002361012009B030BD022323610120F9E7D8
:101B18006369012B20D0022323730025256106AABF
:101B280007A9FFF79FFE069B019301AA29462046B5
:101B3800FFF7AEFE236823F003031B041B0C079A70
:101B48001343049A069942F821302368636025619B
:101B5800012323732846D5E7042323610120D1E715
:101B6800012070470020CDE7844600285AD000297C
:101B78005AD090F85430DAB290F85430DBB2022BD5
:101B880037D0052A35D00B7BDBB2022B39D003685E
:101B9800264A934223D002F1805293421FD002F189
:101BA8007042803293421AD002F18052934216D08A
:101BB80002F170428032934211D002F18052934276
:101BC8000DD002F170428032934208D002F1805267
:101BD800934204D00B681B6A13F0020F14D1DCF88F
:101BE8005030812B14D04B68A3B104230B61012022
:101BF80070474023CCF8583000238CF84C30012033
:101C0800704701200861704703230B61012070476A
:101C18004B681BB1CCF874100020704704230B618B
:101C2800012070470120704701207047500602408C
:101C380038B5274B1A78002A47D005464FF0E023DD
:101C48001C6914F004040DD0224B1C684FF47A71FF
:101C5800B1FBF2F2B4FBF2F42046FFF7B7F950B348
:101C6800012033E0FFF700FA01280ED0022817D030
:101C78000028F1D1174B1C68154A11784FF4FA5215
:101C8800B2FBF1F2B4FBF2F4E6E7114B1B784FF428
:101C98007A72B2FBF3F24FF4FA43B3FBF2F4DBE7E8
:101CA8000B4B1B784FF47A72B2FBF3F24FF40043FC
:101CB800B3FBF2F4D0E7002229464FF0FF30FFF7DC
:101CC80071F9054B1D60002000E0012038BD00BF00
:101CD80000000020080000200400002010B5104A71
:101CE800136843F4807313600320FFF749F900F089
:101CF80065F90C4B1B6A03F00F030B4AD35CD84001
:101D08000A4B18600420FFF771F90F20FFF790FFC6
:101D180010B10124204610BD0446FFF7D9F8F9E7B1
:101D280000200240000C0246D08200080800002073
:101D3800034B1B78034A11680B441360704700BFBC
:101D48000000002088080020014B1868704700BF79
:101D58008808002038B50446FFF7F6FF0546B4F1B9
:101D6800FF3F02D0044B1B781C44FFF7EDFF401BDC
:101D7800A042FAD338BD00BF0000002000285FD081
:101D880010B5044690F84130002B48D0242384F83D
:101D980041302268136823F00103136063682268E6
:101DA80023F0706313612268936823F400439360FF
:101DB800E368012B38D0A368226843F40443936096
:101DC800E368022B36D02268536823F4006353601B
:101DD8002268536843F0007343F400435360226859
:101DE800D36823F40043D360236962691343A1696C
:101DF800226843EA0123D360E369216A22680B431E
:101E080013602268136843F00103136000206064C4
:101E1800202384F84130206384F8420010BD80F804
:101E28004030FEF7FFFCB1E7A368226843F40043A3
:101E38009360C5E72268536843F400635360C7E7BB
:101E480001207047034690F84120D2B2202A23D1BE
:101E580090F84020012A21D0012280F84020242235
:101E680080F841200068026822F0010202601868C8
:101E7800026822F480520260186802681143016007
:101E880019680A6842F001020A60202283F841209A
:101E9800002083F8400070470220704702207047F6
:101EA800034690F84120D2B2202A21D190F8402050
:101EB800012A1FD0012280F84020242280F84120E6
:101EC8000068026822F0010202601868026822F4C1
:101ED800706242EA0122026019680A6842F001024F
:101EE8000A60202283F84120002083F840007047D0
:101EF800022070470220704730B583B004462D4B4E
:101F0800D3F8943013F0040F0FD003F07DF8B0F538
:101F1800403F20D0B0F5003F1DD0B4F1805F2CD2F7
:101F2800B0F5803F40D0012025E0224DD5F894300F
:101F380043F00403C5F89430D5F8943003F0040353
:101F48000193019B03F060F8D5F8943023F0040363
:101F5800C5F89430DBE7B4F1805F23D20120164A3C
:101F6800136823F00F0303431360136803F00F0390
:101F780083421DD1002003B030BDB4F1005F05D904
:101F8800A0B9B4F1405FEAD80120E8E7B4F1805F76
:101F980001D00120E3E7B0F5803F01D00220DEE761
:101FA8000120DCE70020DAE70320D8E70020D6E7A5
:101FB8000120E0E7000C02460020024010B4594A14
:101FC800D369926A13F00C0310D002F003020C2BB1
:101FD8000AD0544AD26902F00C02042A20D0082BF5
:101FE80021D00020044610E0012AF2D14D4A92681F
:101FF80012F4000F0ED14B4AD2F8F420C2F3033288
:10200800494951F822404BB100200C2B0ED05DF805
:10201800044B7047434A9268120FF1E72046F4E7F1
:1020280042480024F1E741480024EEE73D49886A28
:1020380000F003008B6AC3F30323013307EE103A61
:102048008B6AC3F3001C8B6BC3F3CC030CFB03F349
:1020580007EE903AF8EE677A02281ED0032846D099
:1020680006EE904AF8EE666AB8EE477A86EE876A18
:102078002C4B5B6BC3F3080307EE103AB8EE477AB4
:10208800DFED2B6A67EEA67A77EE277AB7EE007A4D
:1020980077EE877A66EE276A19E0B8EE477A9FED01
:1020A800256AC6EE076A1F4B5B6BC3F3080307EE8E
:1020B800103AB8EE477A9FED1E6A67EE867A77EE99
:1020C800277AB7EE007A77EE877A66EEA76A154B1D
:1020D8005B6BC3F30663013307EE903AB8EE677A99
:1020E800C6EE877AFCEEE77A17EE900A8FE7B8EE2D
:1020F800477A9FED106AC6EE076A0A4B5B6BC3F31B
:10210800080307EE103AB8EE477A9FED096A67EEC2
:10211800867A77EE277AB7EE007A77EE877A66EED8
:10212800A76AD4E7000C0246888200080024F4005D
:10213800000000390024744B002800F07181F0B5CC
:1021480083B00D4604467F4B1B6803F00F038B4298
:102158000BD27C4A136823F00F030B4313601368F8
:1021680003F00F038B4240F05D81236813F0100FDA
:102178000CD06269744B5B6A03F070039A4205D90C
:1021880071494B6A23F070031A434A62236813F0BB
:10219800080F0ED022696C4B1B6A1B0903F07003F1
:1021A8009A4206D968490B6A23F4E06343EA0213AA
:1021B8000B62236813F0040F0CD0E268624B1B6AB1
:1021C80003F070039A4205D95F490B6A23F0700344
:1021D8001A430A62236813F0020F0CD0A2685A4B04
:1021E8001B6A03F00F039A4205D957490B6A23F07B
:1021F8000F031A430A62236813F0010F00F0A88046
:102208006368032B0AD0022B61D0002B66D14E4B9A
:102218001B6813F0040F26D10120FFE04A4BD3F8C6
:10222800943013F0040F0ED1474BD3F8942042F0AA
:102238000402C3F89420D3F8943003F00403019304
:10224800019B012700E00027FFF77EFD06463F4B74
:10225800DB6813F4802F26D18FBB3B4B1B6813F030
:10226800007F00F0E180384AD36923F003036168F6
:102278000B43D361FFF768FD06466368032B34D030
:10228800022B41D0002B4ED02F4BDB6903F00C03FF
:10229800042B5DD0FFF758FD801B41F2883398422C
:1022A800F2D90320BAE0294BDB6813F4804FD3D16D
:1022B800FFF74AFD801B0228F5D90320AEE0224A29
:1022C800D2F8943023F00403C2F89430C5E71E4BCB
:1022D8001B6813F4003FC6D101209FE01A4B1B680E
:1022E80013F4806FBFD1012098E0174BDB6903F02E
:1022F8000C030C2B2CD0FFF727FD831B41F28832EF
:102308009342F2D9032089E00F4BDB6903F00C03F9
:10231800082B1DD0FFF718FD801B41F28833984227
:10232800F2D903207AE0084BDB6913F00C0F0FD0C9
:10233800FFF70AFD801B41F288339842F3D9032046
:102348006CE000BF00200240000C02460008024674
:10235800236813F0020F0CD0A268354B1B6A03F0F8
:102368000F039A4205D232490B6A23F00F031A432E
:102378000A62304B1B6803F00F03AB420AD92D4A9F
:10238800136823F00F032B431360136803F00F0344
:10239800AB424BD1236813F0040F0CD0E268244BF6
:1023A8001B6A03F070039A4205D221490B6A23F095
:1023B80070031A430A62236813F0080F0ED02269CB
:1023C8001B4B1B6A1B0903F070039A4206D218497B
:1023D8000B6A23F4E06343EA02130B62236813F0E9
:1023E800100F0CD06269124B5B6A03F070039A42BB
:1023F80005D20F494B6A23F070031A434A62FFF76C
:10240800DDFD0B4B1B6A03F00F030B4AD35CD8406E
:102418000A4B18600A4B1868FFF70AFC03B0F0BDB6
:10242800012070470120F9E70120F7E70120F5E7CF
:10243800000C024600200240D0820008080000205C
:102448000400002008B5FFF7B9FD054B1B6A03F02F
:102458000F03044AD35CD840034B186008BD00BF83
:10246800000C0246D082000808000020002800F076
:102478002A85F0B585B004469C4BDD6905F00C054E
:102488009E6A06F00306036813F0100F00F09480AC
:10249800EDB10C2D19D0E369002B00F01181934A9E
:1024A800136843F001031360FFF74EFC07468F4B98
:1024B8001B6813F0040F40F0CD80FFF745FCC01BEC
:1024C8000228F4D9032000F001BD012EE3D1E3690D
:1024D800002B00F0FA84606A844B9B6813F4000FA9
:1024E8001CD0824B9B6803F07043984244D9E5B1F5
:1024F8007E4A936843F400039360936823F0704323
:10250800616A0B439360636AB3F1404F14D3D36895
:1025180023F01F03216A0B43D36044E0734BD3F8C5
:10252800F4301B0403F07043DFE7FFF7E5FC0028F5
:10253800DED0012000F0CABC002B0BDBB3F1804FCA
:1025480011D36A4AD36823F4F843216A43EA812302
:10255800D36028E0654AD36823F47873216A43EA94
:102568004113D3601FE0614AD36823F47823216ABA
:1025780043EAC133D36016E05C4A936843F400032E
:102588009360936823F07043616A0B439360636AB6
:10259800B3F1404F36D3D36823F01F03216A0B43AE
:1025A800D360002D4ED0FFF74DFF514B1868FFF751
:1025B8003FFB002840F08A84236813F0010F00F0E5
:1025C800A080082D00F099800C2D00F0938063689E
:1025D800B3F5803F00F0B680B3F5A02F00F0C880B7
:1025E800B3F5A81F00F0D280404B1A6822F480325D
:1025F8001A601A6822F480221A601A6822F480127B
:102608001A60A4E0002B0BDBB3F1804F11D3374ADB
:10261800D36823F4F843216A43EA8123D360C0E7EF
:10262800324AD36823F47873216A43EA4113D360AA
:10263800B7E72E4AD36823F47823216A43EAC133E3
:10264800D360AEE7606AFFF757FC0028ABD00120E3
:1026580000F03CBC254A936843F4000393609368F8
:1026680023F07043616A0B439360636AB3F1404F90
:1026780006D3D36823F01F03216A0B43D3609BE77B
:10268800002B0BDBB3F1804F11D3184AD36823F426
:10269800F843216A43EA8123D3608DE7134AD3685C
:1026A80023F47873216A43EA4113D36084E70F4A1D
:1026B800D36823F47823216A43EAC133D3607BE7E4
:1026C8000A4A136823F001031360FFF73DFB07462E
:1026D800064B1B6813F0040F3FF46EAFFFF734FB93
:1026E800C01B0228F4D90320F0E300BF000C024607
:1026F80004000020032E7FF46AAF6368002B00F00B
:10270800E783236813F0020F6BD0042D5DD00C2DE6
:1027180059D0E368002B00F0BF80AA4A136843F43D
:1027280080731360FFF710FB0546A64B1B6813F474
:10273800806F40F0A880FFF707FB401B0228F4D900
:102748000320C3E39F4A136843F48033136063682C
:1027580053B3FFF7F9FA07469A4B1B6813F4003F87
:10276800CFD1FFF7F1FAC01B6428F5D90320ADE3F8
:10277800944B1A6842F480221A601A6822F4801274
:102788001A601A6842F480321A60E0E78D4B1A68C2
:1027980042F480221A601A6842F480121A601A6899
:1027A80042F480321A60D2E7FFF7CEFA0746854B2B
:1027B8001B6813F4003FA4D0FFF7C6FAC01B6428B7
:1027C800F5D9032082E3022EA3D1E368002B00F0A1
:1027D80081837C4A136923F4F813216943EA01438E
:1027E8001361236813F0080F00F0AF80754BD3F81E
:1027F800943013F0040F63D1724BD3F8942042F055
:102808000402C3F89420D3F8943003F0040301932E
:10281800019B01256C4B9B6A13F0010F52D0636931
:10282800002B7AD0674BD3F8F030A16903F08052BF
:10283800914211D003F04062B2F1006F00F04C8376
:1028480013F0806F52D15F4AD2F8F03023F08053F2
:10285800A1690B43C2F8F0305A4AD2F8F03043F07D
:102868008063C2F8F030FFF76FFA0646554BD3F88D
:10287800F03013F0006F67D1FFF766FA801B052868
:10288800F4D9032022E34F4A136923F4F81321698A
:1028980043EA01431361A4E74A4A136823F48073A7
:1028A8001360FFF751FA0546464B1B6813F4806F17
:1028B80097D0FFF749FA401B0228F5D9032005E312
:1028C8000025A7E7404A936A43F001039362FFF7A4
:1028D8003BFA06463C4B9B6A13F0010F9FD1FFF76A
:1028E80033FA801B0228F5D90320EFE2354AD2F8E3
:1028F800F03023F0A053C2F8F030FFF725FA06466F
:10290800304BD3F8F03013F0006F9CD0FFF71CFA6F
:10291800801B0528F4D90320D8E22A4AD2F8F030DF
:1029280023F0A053C2F8F030FFF70EFA0646254B05
:10293800D3F8F03013F0006F06D0FFF705FA801BCC
:102948000528F4D90320C1E295BB236813F0040FCE
:1029580000F0D9801B4BD3F8943013F0040F2FD11B
:10296800184BD3F8942042F00402C3F89420D3F80B
:10297800943003F004030293029B0125124B9B6AD7
:1029880013F0010F22D0A36813F0010F3AD013F00F
:10299800040F2FD00B4BD3F8F02042F00402C3F8F9
:1029A800F020D3F8F02042F00102C3F8F02036E01E
:1029B800044AD2F8943023F00403C2F89430C4E7F0
:1029C8000025DBE7000C024600080246A84A936A85
:1029D80043F001039362FFF7B7F90646A44B9B6ADD
:1029E80013F0010FCFD1FFF7AFF9801B0228F5D9FB
:1029F80003206BE29F4AD2F8F03043F00103C2F89B
:102A0800F0300CE09B4BD3F8F02022F00102C3F821
:102A1800F020D3F8F02022F00402C3F8F020A368D5
:102A2800002B41D0FFF790F90646924BD3F8F030CF
:102A380013F0020F08D1FFF787F9801B41F28833A2
:102A48009842F2D9032041E2A36813F0800F15D011
:102A5800884AD2F8F03043F08003C2F8F030854B52
:102A6800D3F8F03013F4006F4CD1FFF76DF9801BE9
:102A780041F288339842F2D9032027E27D4AD2F8FE
:102A8800F03023F08003C2F8F0307A4BD3F8F030FE
:102A980013F4006F36D0FFF757F9801B41F28833E3
:102AA8009842F2D9032011E2FFF74EF90646714B1E
:102AB800D3F8F03013F0020F08D0FFF745F9801B68
:102AC80041F288339842F2D90320FFE1694BD3F8E9
:102AD800F03013F0800F15D0664AD2F8F03023F0AA
:102AE8008003C2F8F030634BD3F8F03013F4006F72
:102AF80008D0FFF729F9801B41F288339842F2D9B0
:102B08000320E3E1CDB9236813F0200F31D0E36A45
:102B1800DBB1584A136843F480531360FFF714F984
:102B28000546544B1B6813F4005F22D1FFF70CF9DC
:102B3800401B0228F5D90320C8E14E4AD2F8943048
:102B480023F00403C2F89430DDE74A4A136823F4FB
:102B580080531360FFF7F8F80546464B1B6813F4DB
:102B6800005F06D0FFF7F0F8401B0228F5D90320D4
:102B7800ACE1236813F0800F29D0236B9BB13D4A49
:102B8800136843F480431360FFF7DEF80546394BBA
:102B98001B6813F4004F1AD1FFF7D6F8401B022820
:102BA800F5D9032092E1334A136823F48043136074
:102BB800FFF7CAF805462F4B1B6813F4004F06D0E1
:102BC800FFF7C2F8401B0228F5D903207EE12368ED
:102BD80013F0400F64D0636B002B4DD0254A9368E7
:102BE80043F400039360936823F07063A16A0B4376
:102BF8009360636AB3F1404F19D3D36823F01F037E
:102C0800216A0B43D3601B4A136843F01003136017
:102C1800FFF79AF80546174B1B6813F0200F3FD1B2
:102C2800FFF792F8401B0228F5D903204EE1002B4C
:102C38000BDBB3F1804F11D30E4AD36823F4F8436A
:102C4800216A43EA8123D360DDE70A4AD36823F483
:102C58007873216A43EA4113D360D4E7054AD368FD
:102C680023F47823216A43EAC133D360CBE700BF5A
:102C780000080246000C0246A14A136823F010031C
:102C88001360FFF761F805469D4B1B6813F0200F92
:102C980006D0FFF759F8401B0228F5D9032015E1A3
:102CA800A36B002B00F01A81954AD26902F00C023E
:102CB8000C2A00F0BC80022B14D0914A136823F030
:102CC80080731360FFF740F804468D4B1B6813F0C0
:102CD800007F00F0A380FFF737F8001B0228F4D923
:102CE8000320F3E0864A136823F080731360FFF72C
:102CF8002BF80546824B1B6813F0007F06D0FFF7C0
:102D080023F8401B0228F5D90320DFE07C4BD3F8D9
:102D1800943013F0040F68D1794BD3F8942042F023
:102D28000402C3F89420D3F8943003F00403039307
:102D3800039B0125734BDB6813F4802F57D10026C2
:102D4800704AD36823F48023D3606D4B9A6A22F4C7
:102D58007F4222F00302E16B206C013841EA002136
:102D6800606C01430A439A625A6B67481040A26C30
:102D7800013AC2F30802E16C0139490289B20A43F7
:102D8800216D0139090401F4FE010A43616D01391D
:102D9800090601F0FE410A43104358639A6A22F07B
:102DA80010029A62E26DD2009A639A6A42F01002A7
:102DB8009A629A6A22F00C02A16D0A439A62C6B915
:102DC800EDB94F4A136843F080731360FEF7BCFFF8
:102DD80004464B4B1B6813F0007F18D1FEF7B4FF75
:102DE800001B0228F5D9032070E00025A2E7012680
:102DF800A6E7444AD36843F48023D360E0E7404A17
:102E0800D2F8943023F00403C2F89430D9E73C4A4E
:102E1800936A43F480239362002057E0384A936A08
:102E280023F4E02323F00303936200204EE0344AA6
:102E3800916A506B012B53D001F00303E26B93426C
:102E480050D1C1F30322236C013B9A424CD101F4C7
:102E58007041636C994249D1C0F30802A36C013BED
:102E68009A4245D1C0F34622E36C013B9A4241D1D4
:102E7800C0F30642236D013B9A423DD1C0F3066080
:102E8800636D013B984239D11D4B9B6BC3F3CC0357
:102E9800E26D934201D1002018E0194A936A23F0A9
:102EA80010039362FEF750FF0546FEF74DFFA84258
:102EB800FBD0E26DD200124B9A639A6A42F010027C
:102EC8009A62002002E001207047012005B0F0BDA1
:102ED8000120FBE70120F9E70120F7E70020F5E7EB
:102EE8000120F3E70120F1E70120EFE70120EDE7FA
:102EF8000120EBE70120E9E70120E7E70120E5E70A
:102F0800000C0246000802460000808008B5FFF762
:102F180099FA044B1B6AC3F30213034AD35CD840E3
:102F280008BD00BF000C0246C882000808B5FFF7BC
:102F380089FA044B1B6AC3F30223034AD35CD840C3
:102F480008BD00BF000C0246C882000808B5FFF79C
:102F580079FA044B5B6AC3F30213034AD35CD84083
:102F680008BD00BF000C0246C882000838B50546F7
:102F7800344A136823F080531360FEF7E5FE0446D5
:102F8800304B1B6813F0005F06D0FEF7DDFE001B18
:102F98000228F5D9032038BD2A4B1A6B22F4706237
:102FA80022F0030229686868013841EA00210A43CF
:102FB8001A635A6C24481040AA68013AC2F30802FE
:102FC800E9680139490289B20A43296901390904C2
:102FD80001F4FE010A4369690139090601F0FE415D
:102FE8000A43104358641A6B22F00C02A9690A4379
:102FF8001A631A6B296A0A431A631A6B22F01002C1
:103008001A639A6C6FF3CF02E96942EAC1029A64C3
:103018001A6B42F010021A631A6842F080521A6062
:10302800FEF792FE0446074B1B6813F0005F06D1BB
:10303800FEF78AFE001B0228F5D90320ABE7002023
:10304800A9E700BF000C02460000808038B505469D
:10305800344A136823F080631360FEF775FE044654
:10306800304B1B6813F0006F06D0FEF76DFE001B97
:103078000228F5D9032038BD2A4BDA6A22F4706297
:1030880022F0030229686868013841EA00210A43EE
:10309800DA62DA6B24481040AA68013AC2F30802DF
:1030A800E9680139490289B20A43296901390904E1
:1030B80001F4FE010A4369690139090601F0FE417C
:1030C8000A431043D863DA6A22F00C02A9690A435A
:1030D800DA62DA6A296A0A43DA62DA6A22F01002E4
:1030E800DA621A6C6FF3CF02E96942EAC1021A6424
:1030F800DA6A42F01002DA621A6842F080621A60F4
:10310800FEF722FE0446074B1B6813F0006F06D13A
:10311800FEF71AFE001B0228F5D90320ABE70020B2
:10312800A9E700BF000C0246000080802DE9F041AD
:1031380082B00446036813F0010F08D0AB4AD2F8F6
:10314800E03023F00303016D0B43C2F8E03023683D
:1031580013F0020F08D0A54AD2F8E03023F00C0390
:10316800616D0B43C2F8E030236813F0040F08D0F8
:103178009E4AD2F8E03023F03003A16D0B43C2F829
:10318800E030236813F0080F08D0984AD2F8E030EE
:1031980023F0C003E16D0B43C2F8E030236813F05D
:1031A800100F08D0914AD2F8E03023F44073216E12
:1031B8000B43C2F8E030236813F0200F08D08B4A85
:1031C800D2F8E83023F00703616E0B43C2F8E83009
:1031D800236813F0400F08D0844AD2F8E03023F473
:1031E8004063A16E0B43C2F8E030236813F0800FF0
:1031F80008D07E4AD2F8E03023F44053E16E0B4306
:10320800C2F8E030236813F4807F08D0774AD2F8F8
:10321800E83023F0C003216F0B43C2F8E83023687D
:1032280013F4800F08D0714AD2F8E03023F44043F9
:10323800616F0B43C2F8E030236813F4007F08D0B5
:103248006A4AD2F8E83023F44063A16F0B43C2F80E
:10325800E830236813F4806F08D0644AD2F8E0306D
:1032680023F44023E16F0B43C2F8E030236813F4E2
:10327800006F09D05D4AD2F8E83023F44073D4F8DF
:1032880080100B43C2F8E830236813F4005F36D08F
:10329800D4F89030402B13D00BD81BB3202B05D17A
:1032A80004F12C00FFF762FE054620E001263546B2
:1032B80027E0602B1FD0802B1FD00126354620E049
:1032C8004A4A936A43F4803393620025474AD2F806
:1032D800E43023F0E003D4F890100B43C2F8E43054
:1032E80000260EE004F10800FFF7B0FE0546002DA9
:1032F800ECD02E4605E00025E8E70025E6E70026A5
:103308003546236813F4804F2BD0D4F89430B3F5A6
:10331800007F16D00CD8D3B3B3F5807F05D104F164
:103328002C00FFF723FE054610E00126354618E07D
:10333800B3F5407F0AD0B3F5806F07D00126354634
:103348000FE02A4A936A43F4803393622DBB274ADD
:10335800D2F8E43023F4E063D4F894100B43C2F8B5
:10336800E430236813F4004F32D0D4F8A430B3F516
:10337800005F1BD013D9B3F5804F1CD0B3F5A04F15
:1033880019D0B3F5405F16D00126354620E004F188
:103398000800FFF75BFE0546D8E72E46E1E753B184
:1033A800B3F5805F07D00126354611E004F1080027
:1033B800FFF74CFE054655B90C4AD2F8E83023F41D
:1033C800E043D4F8A4100B43C2F8E83000E02E46DE
:1033D800236813F4803F1DD0D4F88830042B00F202
:1033E8009E80DFE803F00A05960A0A00000C0246F0
:1033F800BD4A936A43F480339362002D40F0928073
:10340800B94AD2F8E43023F00703D4F888100B4304
:10341800C2F8E430236813F4003F1DD0D4F88C3090
:10342800B3F5003F00F08C8000F281803BB1B3F52A
:10343800803F79D1AC4A936A43F480339362002D7C
:1034480040F08480A84AD2F8E83023F4E023D4F886
:103458008C100B43C2F8E830236813F4802F00F077
:103468009180A14BD3F8943013F0040F70D19E4B88
:10347800D3F8942042F00402C3F89420D3F894308F
:1034880003F004030193019B4FF00108974A936AE4
:1034980043F001039362FEF757FC0746934B9B6A80
:1034A80013F0010F05D1FEF74FFCC31B022BF5D912
:1034B8000325002D61D18C4BD3F8F03013F4407301
:1034C80016D0D4F8BC209A4212D0874AD2F8F030ED
:1034D80023F44073D2F8F01041F48031C2F8F010B0
:1034E800D2F8F01021F48031C2F8F010C2F8F030B0
:1034F80013F0010F2FD1002D40F0E2807A4AD2F864
:10350800F03023F44073D4F8BC100B43C2F8F03009
:1035180034E004F12C00FFF729FD05466DE701268C
:10352800354677E72E4675E70126354694E7B3F525
:10353800403F84D0B3F5802F81D0012635468BE7F4
:1035480004F12C00FFF712FD054678E72E4683E7C5
:103558004FF000089AE7FEF7F7FB0746624BD3F8EF
:10356800F03013F0020FC6D1FEF7EEFBC01B41F29C
:1035780088339842F2D90325BDE72E46B8F1000FEB
:1035880040F0A080236813F4801F1ED0D4F89C302C
:10359800B3F1006F00F0AC8000F29F8043B1B3F14B
:1035A800806F40F0978004F10800FFF74FFD054653
:1035B800002D40F0A3804C4AD2F8E03023F040635D
:1035C800D4F89C100B43C2F8E030236813F4002FA2
:1035D8000ED0D4F89830B3F5805F00F09180B3F541
:1035E800005F00F08D80002B00F08A8001263546B0
:1035F800236813F4001F0FD0D4F8A030B3F5804F20
:1036080000F08A80384AD2F8E43023F48043D4F8B2
:10361800A0100B43C2F8E430236813F4000F09D05C
:10362800314AD2F8E03023F44013D4F8B0100B43F9
:10363800C2F8E030236813F0807F09D02A4AD2F814
:10364800E03023F44033D4F8B4100B43C2F8E03030
:10365800236813F0007F09D0234AD2F8E83023F01A
:103668001803D4F8B8100B43C2F8E830236813F0F5
:10367800806F15D0D4F8AC30B3F5001F52D0D4F811
:10368800AC30B3F5401F53D0002D57D1164AD2F8AD
:10369800E43023F44013D4F8AC100B43C2F8E43000
:1036A800236813F0006F5BD0D4F88430B3F1807FC7
:1036B80046D0B3F1007F65D0002B46D001264FE0FD
:1036C8002E465BE7084AD2F8943023F00403C2F888
:1036D800943057E70126354677E7B3F1406F3FF45A
:1036E80067AF0126354670E7000C0246000802461F
:1036F800284A936A43F40033936259E72E4664E7F5
:1037080045B92449D1F8E42022F440521343C1F8C2
:10371800E4306DE72E466BE71E4A936A43F4803324
:1037280093626FE71B4A936A43F400339362A6E7F8
:1037380004F10800FFF78AFC0546A5E72E46AFE727
:10374800144A936A43F4003393620DBB114AD2F8CA
:10375800E03023F04073D4F884100B43C2F8E03013
:10376800236813F0805F09D00A4AD2F8E83023F4BE
:103778000043D4F8A8100B43C2F8E830304602B032
:10378800BDE8F08104F10800FFF760FC0546DCE7BE
:103798002E46E5E7000C024610B5824C616BC1F37A
:1037A8000801A36A03F0030CA36AC3F303235A1C9A
:1037B800A36AC3F3001EA36BC3F3CC030EFB03F38E
:1037C80007EE903AF8EE677ABCF1020F2ED0BCF102
:1037D800030F00F0BA80BCF1010F00F08A80714B32
:1037E8009B6813F4000F00F0CD806E4B9B681B0F95
:1037F8006D4C04EB830393ED006AB8EE466A07EE5E
:10380800102AB8EE477AC6EE076A07EE101AB8EE25
:10381800477A9FED666A67EE867A77EE277AB7EE83
:10382800007A77EE877A66EEA77A1BE007EE102A11
:10383800B8EE477A9FED5E6AC6EE076A594B5B6B36
:10384800C3F3080307EE103AB8EE477A9FED576ABC
:1038580067EE867A77EE277AB7EE007A77EE877A80
:1038680066EEA77A4F4B9B6A13F4803F00F0908076
:103878004C4B5B6BC3F3462307EE103AB8EE477A1E
:10388800F7EE006A37EE267AC7EE876AFCEEE66A3C
:10389800C0ED006A434B9B6A13F4003F7BD0414B59
:1038A8005B6BC3F3064307EE103AB8EE477AF7EEC0
:1038B800006A37EE267AC7EE876AFCEEE66AC0ED44
:1038C800016A384B9B6A13F4802F67D0354B5B6BCA
:1038D800C3F3066307EE103AB8EE477AF7EE006ACC
:1038E80037EE267AC7EE876AFCEEE66AC0ED026A12
:1038F80010BD2C4B9B6813F4000F20D0294B9B68FC
:103908001B0F294C04EB830393ED006AB8EE466A5B
:1039180007EE102AB8EE477AC6EE076A07EE101AC5
:10392800B8EE477A9FED216A67EE867A77EE277AB6
:10393800B7EE007A77EE877A66EEA77A92E7194BA8
:10394800D3F8F430C3F30333DBE707EE102AB8EEFD
:10395800477A9FED176AC6EE076A124B5B6BC3F393
:10396800080307EE103AB8EE477A9FED106A67EE43
:10397800867A77EE277AB7EE007A77EE877A66EE60
:10398800A77A6FE7074BD3F8F430C3F303332FE775
:10399800002303607EE70023436092E700238360EF
:1039A800A6E700BF000C0246888200080000003924
:1039B8000024744B10B5824CE16BC1F30801E36A33
:1039C80003F0030CE36AC3F303235A1CE36AC3F34B
:1039D800001E236CC3F3CC030EFB03F307EE903AEF
:1039E800F8EE677ABCF1020F2ED0BCF1030F00F09D
:1039F800BA80BCF1010F00F08A80714B9B6813F408
:103A0800000F00F0CD806E4B9B681B0F6D4C04EBD4
:103A1800830393ED006AB8EE466A07EE102AB8EE03
:103A2800477AC6EE076A07EE101AB8EE477A9FED96
:103A3800666A67EE867A77EE277AB7EE007A77EECF
:103A4800877A66EEA77A1BE007EE102AB8EE477A67
:103A58009FED5E6AC6EE076A594BDB6BC3F308033A
:103A680007EE103AB8EE477A9FED576A67EE867A06
:103A780077EE277AB7EE007A77EE877A66EEA77A3E
:103A88004F4BDB6A13F4803F00F090804C4BDB6BAC
:103A9800C3F3462307EE103AB8EE477AF7EE006A0A
:103AA80037EE267AC7EE876AFCEEE66AC0ED006A52
:103AB800434BDB6A13F4003F7BD0414BDB6BC3F312
:103AC800064307EE103AB8EE477AF7EE006A37EE8B
:103AD800267AC7EE876AFCEEE66AC0ED016A384BC3
:103AE800DB6A13F4802F67D0354BDB6BC3F30663B7
:103AF80007EE103AB8EE477AF7EE006A37EE267A04
:103B0800C7EE876AFCEEE66AC0ED026A10BD2C4B70
:103B18009B6813F4000F20D0294B9B681B0F294C7E
:103B280004EB830393ED006AB8EE466A07EE102AA9
:103B3800B8EE477AC6EE076A07EE101AB8EE477A6B
:103B48009FED216A67EE867A77EE277AB7EE007ADC
:103B580077EE877A66EEA77A92E7194BD3F8F430B6
:103B6800C3F30333DBE707EE102AB8EE477A9FED7D
:103B7800176AC6EE076A124BDB6BC3F3080307EE3E
:103B8800103AB8EE477A9FED106A67EE867A77EEBC
:103B9800277AB7EE007A77EE877A66EEA77A6FE72C
:103BA800074BD3F8F430C3F303332FE70023036044
:103BB8007EE70023436092E700238360A6E700BF07
:103BC800000C024688820008000000390024744B6B
:103BD80010B5824C616CC1F30801236B03F0030C30
:103BE800236BC3F303235A1C236BC3F3001EA36C7C
:103BF800C3F3CC030EFB03F307EE903AF8EE677AB3
:103C0800BCF1020F2ED0BCF1030F00F0BA80BCF15A
:103C1800010F00F08A80714B9B6813F4000F00F0CD
:103C2800CD806E4B9B681B0F6D4C04EB830393EDAB
:103C3800006AB8EE466A07EE102AB8EE477AC6EE72
:103C4800076A07EE101AB8EE477A9FED666A67EEC4
:103C5800867A77EE277AB7EE007A77EE877A66EE7D
:103C6800A77A1BE007EE102AB8EE477A9FED5E6A46
:103C7800C6EE076A594B5B6CC3F3080307EE103AAC
:103C8800B8EE477A9FED576A67EE867A77EE277A1D
:103C9800B7EE007A77EE877A66EEA77A4F4B1B6B02
:103CA80013F4803F00F090804C4B5B6CC3F34623C9
:103CB80007EE103AB8EE477AF7EE006A37EE267A42
:103CC800C7EE876AFCEEE66AC0ED006A434B1B6BE1
:103CD80013F4003F7BD0414B5B6CC3F3064307EE04
:103CE800103AB8EE477AF7EE006A37EE267AC7EE52
:103CF800876AFCEEE66AC0ED016A384B1B6B13F469
:103D0800802F67D0354B5B6CC3F3066307EE103A20
:103D1800B8EE477AF7EE006A37EE267AC7EE876A7A
:103D2800FCEEE66AC0ED026A10BD2C4B9B6813F4EA
:103D3800000F20D0294B9B681B0F294C04EB8303F1
:103D480093ED006AB8EE466A07EE102AB8EE477A95
:103D5800C6EE076A07EE101AB8EE477A9FED216A99
:103D680067EE867A77EE277AB7EE007A77EE877A6B
:103D780066EEA77A92E7194BD3F8F430C3F303330E
:103D8800DBE707EE102AB8EE477A9FED176AC6EE12
:103D9800076A124B5B6CC3F3080307EE103AB8EEE0
:103DA800477A9FED106A67EE867A77EE277AB7EE44
:103DB800007A77EE877A66EEA77A6FE7074BD3F833
:103DC800F430C3F303332FE7002303607EE70023B7
:103DD800436092E700238360A6E700BF000C024619
:103DE80088820008000000390024744B00B58BB0AD
:103DF800A0F500430B4300F0698348F201039842A1
:103E080071F1000380F0D680A0F180030B4300F02D
:103E18002184812871F100037CD2212871F10003EB
:103E280054D250EA010300F0C186013841F1FF3154
:103E3800202871F1000103D300200BB05DF804FBCA
:103E48001F28F9D801A353F820F000BFF542000855
:103E580039430008413E00087D430008413E000800
:103E6800413E0008413E0008C1430008413E0008A9
:103E7800413E0008413E0008413E0008413E00081E
:103E8800413E0008413E000805440008413E000844
:103E9800413E0008413E0008413E0008413E0008FE
:103EA800413E0008413E0008413E0008413E0008EE
:103EB800413E0008413E0008413E0008413E0008DE
:103EC800413E0008413E000861440008403808436C
:103ED8001ED1B14BD3F8E03013F4406300F0A28355
:103EE800B3F5806F00F0A183AB4A126812F4806FBB
:103EF80003D0B3F5006F00F0BB86A74A106810F036
:103F080020009AD0B3F5406F00F09283002094E728
:103F1800002092E7A0F500630B4300F03E8440F6D2
:103F28000103984271F1000322D2A0F500730B43FC
:103F380000F07C84A0F580630B4300F0C084A0F5FA
:103F48008070084312D1944BD3F8E83003F0C003D3
:103F5800802B00F0DB8300F2B883002B00F0CD83C8
:103F6800402B40F0AF83FEF729F866E7002064E7AE
:103F7800A0F500530B4300F0FC80A0F580400843F7
:103F880016D1854BD3F8E43003F4E063B3F5007F32
:103F980000F0368100F22381002B00F03681B3F562
:103FA800807F40F01A8101A8FFF712FE019844E7CC
:103FB800002042E7A0F580030B4300F0B683774B5F
:103FC800984271F100032CD300F17C430B4300F0BD
:103FD8008E85734B984271F1000374D200F17F43D0
:103FE8000B4300F0F78400F17E430B4300F0328569
:103FF800A0F50000084364D1674BD3F8E03003F420
:104008004013B3F5001F00F0CF8400F2B084002BFA
:1040180000F0C684B3F5801F40F0A684FDF7CEFFFC
:104028000BE7A0F500230B4300F09E855D4B9842FB
:1040380071F100031DD2A0F500330B4300F0B582E7
:10404800A0F580230B4368D0A0F5803008430ED13B
:10405800514BD3F8E43003F00703042B00F2018638
:10406800DFE813F088027E0283027B028B020020C5
:10407800E3E6A0F580130B4300F0CC80A0F5001018
:1040880008431CD1444BD3F8E40010F4804040F0BE
:104098002881D3F8E03003F04063B3F1006F00F0FB
:1040A8000D8100F2F580002B00F00D81B3F1806FD7
:1040B8007FF4C3AE04A8FFF77DFC0598BDE6002099
:1040C800BBE60020B9E600F178430B4300F02B84EF
:1040D80000F1704008431ED12F4AD2F8E83003F4AB
:1040E8000043D2F8F02012F0020F02D0002B00F0AB
:1040F8000486294AD2F8F00010F000603FF49DAE23
:10410800002B00F0FE85D2F8F03013F0805F00F04D
:10411800FB85FA2091E600208FE61F4AD2F8F0309E
:1041280003F44073D2F8F02012F0020F03D0B3F575
:10413800807F00F03E85184AD2F8F02012F0006F18
:1041480002D0B3F5007F0BD0134A126812F4003F77
:1041580000F03785B3F5407F00F0368500206CE627
:104168000D4BD3F8F03013F0805F00F02685FA206D
:1041780063E6094BD3F8E43003F0E003402B22D088
:1041880012D82BB3202B04D101A8FFF721FD0198E9
:1041980053E6002051E600BF000C02460100400033
:1041A8000100000401000800602B00F01085802B3E
:1041B80007D1A54B186810F480603FF43EAEA348C1
:1041C8003BE6002039E607A8FFF7E6FA079834E649
:1041D80004A8FFF7EFFB04982FE600202DE6B3F5BF
:1041E800407F00F0F884B3F5806F07D1964B1868CC
:1041F80010F480603FF421AE94481EE600201CE6CF
:1042080007A8FFF7C9FA079817E604A8FFF7D2FB33
:10421800049812E68C4BD3F8E03003F04063B3F116
:10422800006F22D00AD82BB3B3F1806F04D104A851
:10423800FFF7C0FB059800E60020FEE5B3F1406FEC
:1042480011D1814B186810F020003FF4F6AD9B683F
:1042580013F4000F16D07C4B9B68C3F303637C4AAE
:1042680052F82300E9E50020E7E507A8FFF794FAEC
:104278000898E2E5744B186810F400503FF4DDAD7F
:104288007448DAE5704BD3F8F430C3F30323E6E758
:10429800B3F1406F7FF4D1AD6B4B186810F020007C
:1042A8003FF4CBAD9B6813F4000F14D0664B9B68AA
:1042B800C3F30363664A52F82300BEE507A8FFF775
:1042C8006BFA0898B9E5604B186810F400503FF491
:1042D800B4AD6048B1E55C4BD3F8F430C3F30323C5
:1042E800E8E707A8FFF758FA0798A6E5564BD3F86A
:1042F800E03013F0030315D0012B16D0524A126890
:1043080012F4806F02D0022B00F069844E4AD2F872
:10431800F02012F0020F00F06584032B00F0658492
:1043280000208AE5FEF702FE87E5FDF747FE84E5F3
:10433800454BD3F8E03013F00C0315D0042B16D0FE
:10434800414A126812F4806F02D0082B00F05184A1
:104358003D4AD2F8F02012F0020F00F04D840C2BE9
:1043680000F04D84002068E5FEF7D0FD65E5FDF717
:1043780025FE62E5344BD3F8E03013F0300315D056
:10438800102B16D0304A126812F4806F02D0202BFE
:1043980000F039842C4AD2F8F02012F0020F00F015
:1043A8003584302B00F03584002046E5FEF7AEFD5D
:1043B80043E5FDF703FE40E5234BD3F8E03013F067
:1043C800C00315D0402B16D01F4A126812F4806F14
:1043D80002D0802B00F021841B4AD2F8F02012F082
:1043E800020F00F01D84C02B00F01D84002024E57E
:1043F800FEF78CFD21E5FDF7E1FD1EE5124BD3F834
:10440800E03013F4407318D0B3F5807F18D00E4A0B
:10441800126812F4806F03D0B3F5007F00F00784B0
:10442800094AD2F8F02012F0020F00F00384B3F525
:10443800407F00F002840020FFE4FEF767FDFCE403
:10444800FDF7BCFDF9E400BF000C02460024F400AF
:1044580088820008006CDC02AA4BD3F8E83013F01D
:1044680007031CD0012B1DD0A64A126812F4806FD6
:1044780002D0022B00F0E583A24AD2F8F02012F015
:10448800020F02D0032B00F0DF839E4A106810F061
:1044980020003FF4D2AC042B07D00020CDE4FEF777
:1044A80055FDCAE4FDF78AFDC7E4936813F4000FCD
:1044B80006D09368C3F30363934A52F82300BCE41D
:1044C800904BD3F8F430C3F30323F5E78D4BD3F8BF
:1044D800E83003F4E043B3F5805F1BD0B3F5005F29
:1044E8001BD0FBB1B3F5A04F1FD0864A126812F457
:1044F800003F03D0B3F5405F00F0AA83814A1268F9
:1045080012F4806F00F0A783B3F5804F00F0A68304
:10451800002092E4FDF752FD8FE404A8FFF74AFA61
:1045280006988AE4FDF78EFF87E4764B186810F04A
:1045380020003FF482AC9B6813F4000F07D0714B46
:104548009B68C3F30363704A52F8230075E46D4B0C
:10455800D3F8F430C3F30323F5E74BF680306CE46B
:1045680007A8FFF719F9079867E401A8FFF730FBD8
:10457800029862E4FDF766FF5FE4624B186810F08A
:1045880020003FF45AAC9B6813F4000F07D05D4B32
:104598009B68C3F303635C4A52F823004DE4594B0C
:1045A800D3F8F430C3F30323F5E7564BD3F8E830D8
:1045B80003F4E023B3F5003F26D00AD84BB3B3F594
:1045C800803F04D107A8FFF7E7F8079835E40020F3
:1045D80033E4B3F5403F00F04783B3F5802F11D1A2
:1045E800484B186810F020003FF427AC9B6813F480
:1045F800000F11D0434B9B68C3F30363424A52F840
:1046080023001AE4002018E401A8FFF7E1FA029851
:1046180013E4FDF717FF10E43A4BD3F8F430C3F373
:104628000323EBE7FEF772FC07E4FDF7C7FC04E49D
:10463800936813F4000F07D09368C3F30363324AF7
:1046480052F82300FFF7F9BB2E4BD3F8F430C3F32D
:104658000323F4E72B4BD3F8E03013F4405317D07F
:10466800B3F5805F18D0274A126812F4806F03D020
:10467800B3F5005F00F0FF82224A106810F02000B6
:104688003FF4DBABB3F5405F0AD00020FFF7D5BBA2
:10469800FEF73CFCFFF7D1BBFDF790FCFFF7CDBB65
:1046A800936813F4000F07D09368C3F30363164AA3
:1046B80052F82300FFF7C1BB124BD3F8F430C3F311
:1046C8000323F4E70020FFF7B8BBC02B12D10D4B32
:1046D800186810F020003FF4B0AB9B6813F4000F8B
:1046E8001DD0084B9B68C3F30363074A52F82300A5
:1046F800FFF7A3BB0020FFF7A0BBFEF727FCFFF7DF
:104708009CBB00BF000C024688820008AE4B1868AC
:1047180010F480603FF491ABAC48FFF78EBBAA4B16
:10472800D3F8F430C3F30323DFE7A74BD3F8E03023
:1047380013F4404317D0B3F5804F18D0A24A12683B
:1047480012F4806F03D0B3F5004F00F097829E4AB1
:10475800106810F020003FF470ABB3F5404F0AD05A
:104768000020FFF76ABBFEF7D1FBFFF766BBFDF73A
:1047780025FCFFF762BB936813F4000F07D093681A
:10478800C3F30363924A52F82300FFF756BB8E4BDC
:10479800D3F8F430C3F30323F4E78B4BD3F8E830B2
:1047A80013F4407318D1884B186810F020003FF4B8
:1047B80044AB9B6813F4000F08D0834B9B68C3F38A
:1047C8000363834A52F82300FFF737BB7E4BD3F8C5
:1047D800F430C3F30323F4E77B4AD2F8F02012F055
:1047E800006F02D0B3F5807F16D0774A126812F4B2
:1047F800806F03D0B3F5007F00F04782724AD2F889
:10480800F02012F0020F00F04382B3F5407F00F071
:1048180042820020FFF711BB6B4BD3F8F03013F046
:10482800805F00F02E82FA20FFF707BB664BD3F8B3
:10483800E83013F4406318D1634B186810F0200077
:104848003FF4FBAA9B6813F4000F08D05E4B9B68EB
:10485800C3F303635E4A52F82300FFF7EEBA5A4BDC
:10486800D3F8F430C3F30323F4E7574AD2F8F0201F
:1048780012F0006F02D0B3F5806F16D0524A12685A
:1048880012F4806F03D0B3F5006F00F00C824E4A2B
:10489800D2F8F02012F0020F00F00882B3F5406F52
:1048A80000F007820020FFF7C8BA474BD3F8F03072
:1048B80013F0805F00F0F381FA20FFF7BEBA424B95
:1048C800D3F8E03013F440231FD03F4AD2F8F02049
:1048D80012F0006F02D0B3F5802F1AD03A4A12684E
:1048E80012F4806F03D0B3F5002F00F0EA81364A46
:1048F800D2F8F02012F0020F00F0E681B3F5402F55
:1049080000F0EE810020FFF798BAFEF7FFFAFFF7F4
:1049180094BA2D4BD3F8F03013F0805F00F0CD81BE
:10492800FA20FFF78ABA284AD2F8E03003F0407339
:10493800126812F4003F02D0002B00F0D581B3F1C9
:10494800807F05D0B3F1007F08D00020FFF775BA4B
:1049580007A8FEF721FF0898FFF76FBA04A8FFF72A
:1049680029F80498FFF769BA0020FFF766BAB3F58B
:10497800401F12D1144B186810F020003FF45DAAB4
:104988009B6813F4000F18D00F4B9B68C3F30363A5
:104998000F4A52F82300FFF750BA0020FFF74DBA2C
:1049A800FEF7C4FAFFF749BA074B186810F480609D
:1049B8003FF443AA0548FFF740BA034BD3F8F43055
:1049C800C3F30323E4E700BF000C02460024F4000D
:1049D80088820008BE4BD3F8E03003F44033B3F5C7
:1049E800003F28D00AD813B3B3F5803F03D1FDF7B1
:1049F800E5FAFFF722BA0020FFF71FBAB3F5403FE8
:104A080012D1B34B186810F020003FF416AA9B6827
:104A180013F4000F18D0AE4B9B68C3F30363AD4A81
:104A280052F82300FFF709BA0020FFF706BAFEF78D
:104A38006DFAFFF702BAA64B186810F480603FF4CD
:104A4800FCA9A548FFF7F9B9A14BD3F8F430C3F393
:104A58000323E4E79E4BD3F8E83003F01803182B40
:104A680000F24581DFE813F01900430143014301D7
:104A780043014301430143011D0043014301430135
:104A88004301430143014301210043014301430121
:104A980043014301430143012A00FEF757FAFFF798
:104AA800CCB9FDF78BFAFFF7C8B9894B186810F431
:104AB80080603FF4C2A98848FFF7BFB9844B1868E3
:104AC80010F020003FF4B9A99B6813F4000F08D038
:104AD8007F4B9B68C3F303637E4A52F82300FFF7BA
:104AE800ACB97B4BD3F8F430C3F30323F4E7784B2A
:104AF800D3F8E43003F44013B3F5001F24D019D8D9
:104B080043B3B3F5801F12D1714B186810F0200021
:104B18003FF493A99B6813F4000F1FD06C4B9B685C
:104B2800C3F303636B4A52F82300FFF786B90020EA
:104B3800FFF783B9B3F5401F40F0DC8004A8FEF707
:104B480039FF0598FFF779B907A8FEF725FE0898F9
:104B5800FFF773B9FDF732FAFFF76FB95C4BD3F87B
:104B6800F430C3F30323DDE7594AD2F8E43003F401
:104B78004053126812F4005F02D0002B00F0C88086
:104B8800534A126812F4005F03D0B3F5805F00F057
:104B9800C2804F4A126812F4806F00F0BF80B3F5EC
:104BA800005F00F0BE800020FFF747B90020FFF744
:104BB80044B94FF40040FFF740B94FF4FA40FFF70B
:104BC8003CB90020FFF739B94448FFF736B94BF62E
:104BD8008030FFF732B94BF68030FFF72EB93E48E8
:104BE800FFF72BB90020FFF728B94FF40040FFF773
:104BF80024B93948FFF721B90020FFF71EB94FF44F
:104C08000040FFF71AB93448FFF717B90020FFF73B
:104C180014B94FF40040FFF710B92F48FFF70DB94A
:104C28000020FFF70AB94FF40040FFF706B92A48F9
:104C3800FFF703B90020FFF700B94FF40040FFF772
:104C4800FCB82548FFF7F9B84FF40040FFF7F5B86E
:104C58002148FFF7F2B80020FFF7EFB81E48FFF72A
:104C6800ECB80020FFF7E9B84BF68030FFF7E5B85D
:104C78001948FFF7E2B81848FFF7DFB81648FFF7FA
:104C8800DCB84FF4FA40FFF7D8B81348FFF7D5B8A7
:104C98000020FFF7D2B84FF40040FFF7CEB84FF42A
:104CA800FA40FFF7CAB80C48FFF7C7B80020FFF76B
:104CB800C4B84FF40040FFF7C0B84FF4FA40FFF70C
:104CC800BCB80548FFF7B9B80020FFF7B6B800BF71
:104CD800000C0246888200080024F40020A1070086
:104CE8004FF40040FFF7A9B80F48FFF7A6B8002017
:104CF800FFF7A3B80020FFF7A0B84FF40040FFF774
:104D08009CB81846FFF799B84FF4FA40FFF795B8E2
:104D18000648FFF792B80648FFF78FB80020FFF75C
:104D28008CB80148FFF789B80024F400006CDC0255
:104D380000366E01F0B504460023DAE0056825EA7E
:104D48000C054C6804F001049C402C4304607F4D22
:104D580055F8334005EBC3056D68EF08083754F87C
:104D6800276005F0070C4FEA8C0C4FF00F0E0EFA77
:104D78000CFE26EA0E0E0B2606FA0CF646EA0E067E
:104D880044F8276027684FEA450C032606FA0CF614
:104D980027EA0607022606FA0CF63E43266021E0BB
:104DA800DE08083650F8265003F00707BF004FF01A
:104DB8000F0C0CFA07FC25EA0C0C0D6905F00F0521
:104DC800BD4045EA0C0540F8265026685F000325DB
:104DD800BD4026EA05064D6805F00305BD4035438C
:104DE80025601D464E6806F1FF3CBCF1010F03D952
:104DF800112E01D0122E1CD1A6684FEA450E4FF095
:104E0800030C0CFA0EFC26EA0C0CCE6806FA0EF619
:104E180046EA0C06A66066684FF0010C0CFA05FC21
:104E280026EA0C0C4E68C6F30016AE4046EA0C069D
:104E380066604E68032E00F08280E6686D004FF0D1
:104E4800030C0CFA05FC26EA0C0C8E68AE4046EA08
:104E58000C06E6604D6815F0805F49D09E083C4F0F
:104E6800183657F8265003F0030C4FEACC0C4FF0D5
:104E78000F0E0EFA0CFE25EA0E0E364D05EA9025A9
:104E880005FA0CF545EA0E0547F826503E686FEA24
:104E9800020C26EA02074D6815F4801F01D042EA89
:104EA80006072B4E376076680CEA06074D6815F43E
:104EB800001F01D042EA0607254E7760D6F88460C5
:104EC8000CEA06074D6815F4003F01D042EA0607D0
:104ED8001F4EC6F88470D6F880600CEA06054F6845
:104EE80017F4803F01D042EA0605194AC2F88050FB
:104EF80001330A6832FA03F526D04FF0010C0CFA98
:104F080003FC1CEA0202F3D0134DA8423FF416AF8B
:104F18004D68022D3FF444AF122D3FF441AF26688F
:104F28004FEA430C032707FA0CF726EA070605F0B1
:104F3800030505FA0CF5354325601D4652E78E68D2
:104F4800012E7FF47AAF85E7F0BD00BFE08100084D
:104F5800002002467F7F2F00000002460AB18161CF
:104F68007047816270470000244BDB6B03F44033C9
:104F7800834219D0B0F5803F20D9204AD36823F462
:104F8800E023034343F48023D3601D4B1B681D4A71
:104F9800A2FB03139B09322101FB03F3A2FB0323AA
:104FA8009B0901331A4611E0B0F5803F04D9134A32
:104FB800D36843F48023D360002070470F4AD36836
:104FC80023F4E0230343D360DFE7013A0B49C968C0
:104FD80011F4004F01D1002AF7D112B9032070470C
:104FE800013B064AD26B12F4004F01D1002BF7D1D6
:104FF8000BB1002070470320704700BF000802462D
:1050080008000020D34D6210024BD86B00F44030EA
:10501800704700BF00080246024A136943F08053F4
:10502800136170470008024603685A69996941F09C
:105038000801996101688B6943F010038B6101686D
:105048000B6823F001030B6001680B6923F45B73A1
:1050580023F003030B6101688B6823F440438B60E2
:1050680090F88930DBB2042B0DD012F0200F0AD053
:10507800D0F88C3043F08003C0F88C3001688B691D
:1050880043F020038B6190F88930DBB2032B0DD0FD
:1050980012F0400F0AD0D0F88C3043F00403C0F867
:1050A8008C3001688B6943F040038B6112F4007FF8
:1050B8000AD0D0F88C3043F00103C0F88C30016876
:1050C8008B6943F400738B6112F4807F0AD0D0F8A7
:1050D8008C3043F00803C0F88C300268936943F4BD
:1050E800807393610023A0F86A30A0F8723070478B
:1050F800C36B5B09C0680830C00803FB0000704739
:105108002DE9F84380460F4616461D46DDF82090E7
:1051180000E0BDB1D8F800305C6937EA04040CBF80
:1051280001230023B3420AD1FCF70EFEA0EB0900CD
:10513800A842EED3B5F1FF3FEBD0032000E00020FA
:10514800BDE8F8830320FBE7002800F0A98038B504
:105158000446056800238362534B9D4240D003F107
:1051680080539D423CD02046FFF7C2FF4E4B9D42E4
:105178003BD003F180539D4237D04C4B9D420AD01F
:1051880003F180539D4206D0494B9D4203D003F161
:1051980080539D4202D1102800F2848094F889300F
:1051A8003BB3022384F889302268136823F0010393
:1051B800136023689A6802F4F812A169B1F1806F4C
:1051C8001DD0636813F4800F2CD0E368062B29D90F
:1051D80021680B6823F48073206D03430B6026E07D
:1051E800E3680F2BBFD9012059E00828C5D9012051
:1051F80055E084F888302046FBF7E4FBD1E7616886
:10520800B1F5800F06D00029DBD1A16BB1F1805F29
:10521800D7D102E0A06B0028F5D1196841F480517C
:105228001960CEE721680B6823F480730B60E3698B
:10523800A16A0B431343E26B1343E16822680B43F3
:105248009360636B626A1343A26B1343A2691343AF
:105258002269134362691343226A13436268134342
:10526800E26C1343A2681343A26C1343A26D134369
:10527800E26D1343216E22680B43D360636813F415
:10528800800F06D02268D36823F00043616D0B437A
:10529800D3600020C4F88C00012384F8893038BD1D
:1052A800012070470120FAE7002000460030014045
:1052B800003800402DE9F04782B004468A469146FE
:1052C8001D46D0F80080FCF73FFD94F88960F6B2DF
:1052D800012E40F05C810746BAF1000F00F05881BA
:1052E800B9F1000F00F0548194F88830012B00F0D8
:1052F8005381012384F88830032384F889300023FC
:10530800C4F88C30C4F864A0A4F86890A4F86A9033
:10531800E366A4F87030A4F87230E367A367A36863
:10532800B3F5C02F30D02268D36823F4C02343F4E8
:105338000033D360226853686FF30F0349EA03030D
:1053480053602268136843F0010313602368DA6925
:1053580012F4001F03D16268B2F5800F1AD0E36817
:105368000F2B0ED922688D498A4221D001F1805134
:105378008A421DD08A498A421AD001F180518A4254
:1053880016D0072B4CD8ABE02268136843F40063AF
:105398001360CFE71A6842F400721A60DFE7FCF77F
:1053A800D3FCC01BA84202D3B5F1FF3F19D1C5B148
:1053B800B4F86A309BB2002B00F0CD8023685A699C
:1053C80012F0020FEBD0626E12681A62636E043339
:1053D8006366B4F86A2092B2013A92B2A4F86A20DD
:1053E800E6E72046FFF720FED4F88C3043F48073BC
:1053F800C4F88C30012384F88930002384F888307D
:105408000326C5E0636E1B88A8F82030636E02335C
:105418006366B4F86A309BB2013B9BB2A4F86A3069
:10542800B4F86A309BB2002B00F09580226853696B
:1054380013F0020F15D0B4F86A309BB2012BE1D9F2
:10544800E36B002BDED0636E1B681362636E04335C
:105458006366B4F86A309BB2023B9BB2A4F86A3028
:10546800DEE7FCF771FCC01BA84202D3B5F1FF3F91
:1054780001D1002DD4D12046FFF7D6FDD4F88C30C9
:1054880043F48073C4F88C30012384F889300023F6
:1054980084F8883003267BE0B4F86A309BB2012B8D
:1054A80010D9E36B73B1636E1B88A8F82030636E64
:1054B80002336366B4F86A309BB2023B9BB2A4F82D
:1054C8006A300DE0636E1B7882F82030636E01331A
:1054D8006366B4F86A309BB2013B9BB2A4F86A30A9
:1054E800B4F86A309BB2002B35D02268536913F0A8
:1054F800020F15D0B4F86A309BB2032BCCD9E36BFA
:10550800402BC9D9636E1B681362636E04336366EC
:10551800B4F86A309BB2043B9BB2A4F86A30DFE768
:10552800FCF712FCC01BA84202D3B5F1FF3F01D122
:10553800002DD5D12046FFF777FDD4F88C3043F401
:105548008073C4F88C30012384F88930002384F8F0
:10555800883003261CE000972B46002208212046AD
:10556800FFF7CEFD28B1D4F88C3043F02003C4F8FF
:105578008C302046FFF758FD012384F8893000233A
:1055880084F88830D4F88C3013B9002600E002265D
:10559800304602B0BDE8F0870226F9E70030014046
:1055A8000038004090F88930DBB2012B1FD190F809
:1055B8008830012B1DD04FF0010C80F888C00223E1
:1055C80080F889300268136823F0010313600B68C0
:1055D8004A6802F470221343896802680B43D36156
:1055E80080F889C0002380F8883018467047012069
:1055F800704702207047000030B4026A036A23F043
:10560800010303624468836923F4803323F073033E
:105618000D681D4322F002028B6813432D4A904205
:105628001FD002F1805290421BD02B4A904218D0D2
:1056380002F18052904214D0284A904211D002F1CF
:10564800805290420DD0264A90420AD002F18052F0
:10565800904206D0234A904203D002F180529042F1
:1056680007D1026A22F00402026223F00803CA6822
:105678001343184A90421FD002F1805290421BD027
:10568800154A904218D002F18052904214D0134A21
:10569800904211D002F1805290420DD0104A9042AF
:1056A8000AD002F18052904206D00E4A904203D0AE
:1056B80002F18052904205D124F440744A69224391
:1056C8008C691443446085614A684263036230BC54
:1056D800704700BF002C01400034014000400140E9
:1056E800004401400048014030B4036A026A22F4D1
:1056F800807202624468C26922F4803222F0730226
:105708000D68154323F400738A6843EA0223244A88
:1057180090420AD002F18052904206D0214A90422B
:1057280003D002F18052904208D1026A22F48062CA
:10573800026223F40063CA6843EA0223184A9042CB
:105748001FD002F1805290421BD0164A904218D0C6
:1057580002F18052904214D0134A904211D002F1C3
:10576800805290420DD0114A90420AD002F18052E4
:10577800904206D00E4A904203D002F180529042E5
:1057880007D124F440544A6944EA02148A6944EA75
:1057980002144460C5614A68C263036230BC704742
:1057A800002C014000340140004001400044014009
:1057B8000048014030B4036A026A22F4805202624F
:1057C8004468C26922F0807222F4E6420D6842EA17
:1057D800052223F400538D6843EA0533244DA8427B
:1057E8000AD005F18055A84206D0224DA84203D020
:1057F80005F18055A84208D1056A25F4804505625F
:1058080023F40043CD6843EA0533194DA8421FD05D
:1058180005F18055A8421BD0164DA84218D005F1B5
:105828008055A84214D0144DA84211D005F18055D6
:10583800A8420DD0114DA8420AD005F18055A842C2
:1058480006D00F4DA84203D005F18055A84207D1D4
:1058580024F440444D6944EA85148D6944EA85146A
:105868004460C2614A680264036230BC704700BF8A
:10587800002C014000340140004001400044014038
:105888000048014030B4036A026A22F4803202629E
:105898004468026D22F4803222F070020D681543CC
:1058A80023F400338A6843EA0243174A90421FD020
:1058B80002F1805290421BD0144A904218D002F153
:1058C8008052904214D0124A904211D002F1805274
:1058D80090420DD00F4A90420AD002F18052904275
:1058E80006D00D4A904203D002F18052904204D172
:1058F80024F480344A6944EA0224446005654A680D
:105908008264036230BC7047002C014000340140BF
:1059180000400140004401400048014030B4036A9F
:10592800026A22F4801202624468026D22F08072D8
:1059380022F4E0420D6842EA052223F400138D6840
:1059480043EA0553174DA8421FD005F18055A842D8
:105958001BD0154DA84218D005F18055A84214D087
:10596800124DA84211D005F18055A8420DD0104D16
:10597800A8420AD005F18055A84206D00D4DA8428C
:1059880003D005F18055A84204D124F480244D6940
:1059980044EA8524446002654A68C264036230BCF4
:1059A800704700BF002C0140003401400040014016
:1059B800004401400048014010B4036A046A24F01E
:1059C80001040462194CA0421FD004F18054A04283
:1059D8001BD0174CA04218D004F18054A04214D018
:1059E800144CA04211D004F18054A0420DD0124CA6
:1059F800A0420AD004F18054A04206D00F4CA04225
:105A080003D004F18054A04203D1046A24F00404B2
:105A18000462846924F0F00C4CEA021223F00A03B1
:105A28001943826101625DF8044B7047002C014004
:105A3800003401400040014000440140004801405A
:105A480010B4036A046A24F0100404620F4CA042E4
:105A58000AD004F18054A04206D00D4CA04203D0D5
:105A680004F18054A04203D1046A24F04004046283
:105A7800846924F4704C4CEA023223F0A00343EA10
:105A88000111826101625DF8044B7047002C0140EE
:105A980000340140836823F4401323F070030B4360
:105AA80043F0070383607047704700000368524A59
:105AB800904225D002F18052904221D0B0F1804F1F
:105AC8001ED0B0F1A04F1BD04C4A904218D002F122
